{
  "abi": [
    {
      "type": "constructor",
      "inputs": [],
      "stateMutability": "nonpayable"
    },
    {
      "type": "function",
      "name": "airdrop",
      "inputs": [
        {
          "name": "recipients",
          "type": "address[]",
          "internalType": "address[]"
        },
        {
          "name": "amounts",
          "type": "uint256[]",
          "internalType": "uint256[]"
        }
      ],
      "outputs": [],
      "stateMutability": "nonpayable"
    },
    {
      "type": "function",
      "name": "allowance",
      "inputs": [
        {
          "name": "owner",
          "type": "address",
          "internalType": "address"
        },
        {
          "name": "spender",
          "type": "address",
          "internalType": "address"
        }
      ],
      "outputs": [
        {
          "name": "",
          "type": "uint256",
          "internalType": "uint256"
        }
      ],
      "stateMutability": "view"
    },
    {
      "type": "function",
      "name": "approve",
      "inputs": [
        {
          "name": "spender",
          "type": "address",
          "internalType": "address"
        },
        {
          "name": "value",
          "type": "uint256",
          "internalType": "uint256"
        }
      ],
      "outputs": [
        {
          "name": "",
          "type": "bool",
          "internalType": "bool"
        }
      ],
      "stateMutability": "nonpayable"
    },
    {
      "type": "function",
      "name": "balanceOf",
      "inputs": [
        {
          "name": "account",
          "type": "address",
          "internalType": "address"
        }
      ],
      "outputs": [
        {
          "name": "",
          "type": "uint256",
          "internalType": "uint256"
        }
      ],
      "stateMutability": "view"
    },
    {
      "type": "function",
      "name": "burn",
      "inputs": [
        {
          "name": "amount",
          "type": "uint256",
          "internalType": "uint256"
        }
      ],
      "outputs": [],
      "stateMutability": "nonpayable"
    },
    {
      "type": "function",
      "name": "burnFrom",
      "inputs": [
        {
          "name": "account",
          "type": "address",
          "internalType": "address"
        },
        {
          "name": "amount",
          "type": "uint256",
          "internalType": "uint256"
        }
      ],
      "outputs": [],
      "stateMutability": "nonpayable"
    },
    {
      "type": "function",
      "name": "decimals",
      "inputs": [],
      "outputs": [
        {
          "name": "",
          "type": "uint8",
          "internalType": "uint8"
        }
      ],
      "stateMutability": "view"
    },
    {
      "type": "function",
      "name": "gameMintLimit",
      "inputs": [
        {
          "name": "",
          "type": "address",
          "internalType": "address"
        }
      ],
      "outputs": [
        {
          "name": "",
          "type": "uint256",
          "internalType": "uint256"
        }
      ],
      "stateMutability": "view"
    },
    {
      "type": "function",
      "name": "gameMinted",
      "inputs": [
        {
          "name": "",
          "type": "address",
          "internalType": "address"
        }
      ],
      "outputs": [
        {
          "name": "",
          "type": "uint256",
          "internalType": "uint256"
        }
      ],
      "stateMutability": "view"
    },
    {
      "type": "function",
      "name": "getGameLimit",
      "inputs": [
        {
          "name": "game",
          "type": "address",
          "internalType": "address"
        }
      ],
      "outputs": [
        {
          "name": "",
          "type": "uint256",
          "internalType": "uint256"
        }
      ],
      "stateMutability": "view"
    },
    {
      "type": "function",
      "name": "getGameMinted",
      "inputs": [
        {
          "name": "game",
          "type": "address",
          "internalType": "address"
        }
      ],
      "outputs": [
        {
          "name": "",
          "type": "uint256",
          "internalType": "uint256"
        }
      ],
      "stateMutability": "view"
    },
    {
      "type": "function",
      "name": "getMaxMintable",
      "inputs": [],
      "outputs": [
        {
          "name": "",
          "type": "uint256",
          "internalType": "uint256"
        }
      ],
      "stateMutability": "view"
    },
    {
      "type": "function",
      "name": "getRemainingMintable",
      "inputs": [],
      "outputs": [
        {
          "name": "",
          "type": "uint256",
          "internalType": "uint256"
        }
      ],
      "stateMutability": "view"
    },
    {
      "type": "function",
      "name": "getTotalMinted",
      "inputs": [],
      "outputs": [
        {
          "name": "",
          "type": "uint256",
          "internalType": "uint256"
        }
      ],
      "stateMutability": "view"
    },
    {
      "type": "function",
      "name": "initialize",
      "inputs": [
        {
          "name": "maxMintable_",
          "type": "uint256",
          "internalType": "uint256"
        },
        {
          "name": "owner_",
          "type": "address",
          "internalType": "address"
        }
      ],
      "outputs": [],
      "stateMutability": "nonpayable"
    },
    {
      "type": "function",
      "name": "isBlacklisted",
      "inputs": [
        {
          "name": "",
          "type": "address",
          "internalType": "address"
        }
      ],
      "outputs": [
        {
          "name": "",
          "type": "bool",
          "internalType": "bool"
        }
      ],
      "stateMutability": "view"
    },
    {
      "type": "function",
      "name": "isGame",
      "inputs": [
        {
          "name": "",
          "type": "address",
          "internalType": "address"
        }
      ],
      "outputs": [
        {
          "name": "",
          "type": "bool",
          "internalType": "bool"
        }
      ],
      "stateMutability": "view"
    },
    {
      "type": "function",
      "name": "mint",
      "inputs": [
        {
          "name": "to",
          "type": "address",
          "internalType": "address"
        },
        {
          "name": "amount",
          "type": "uint256",
          "internalType": "uint256"
        }
      ],
      "outputs": [],
      "stateMutability": "nonpayable"
    },
    {
      "type": "function",
      "name": "name",
      "inputs": [],
      "outputs": [
        {
          "name": "",
          "type": "string",
          "internalType": "string"
        }
      ],
      "stateMutability": "view"
    },
    {
      "type": "function",
      "name": "owner",
      "inputs": [],
      "outputs": [
        {
          "name": "",
          "type": "address",
          "internalType": "address"
        }
      ],
      "stateMutability": "view"
    },
    {
      "type": "function",
      "name": "pause",
      "inputs": [],
      "outputs": [],
      "stateMutability": "nonpayable"
    },
    {
      "type": "function",
      "name": "paused",
      "inputs": [],
      "outputs": [
        {
          "name": "",
          "type": "bool",
          "internalType": "bool"
        }
      ],
      "stateMutability": "view"
    },
    {
      "type": "function",
      "name": "renounceOwnership",
      "inputs": [],
      "outputs": [],
      "stateMutability": "nonpayable"
    },
    {
      "type": "function",
      "name": "setBlacklist",
      "inputs": [
        {
          "name": "account",
          "type": "address",
          "internalType": "address"
        },
        {
          "name": "value",
          "type": "bool",
          "internalType": "bool"
        }
      ],
      "outputs": [],
      "stateMutability": "nonpayable"
    },
    {
      "type": "function",
      "name": "symbol",
      "inputs": [],
      "outputs": [
        {
          "name": "",
          "type": "string",
          "internalType": "string"
        }
      ],
      "stateMutability": "view"
    },
    {
      "type": "function",
      "name": "totalSupply",
      "inputs": [],
      "outputs": [
        {
          "name": "",
          "type": "uint256",
          "internalType": "uint256"
        }
      ],
      "stateMutability": "view"
    },
    {
      "type": "function",
      "name": "transfer",
      "inputs": [
        {
          "name": "to",
          "type": "address",
          "internalType": "address"
        },
        {
          "name": "value",
          "type": "uint256",
          "internalType": "uint256"
        }
      ],
      "outputs": [
        {
          "name": "",
          "type": "bool",
          "internalType": "bool"
        }
      ],
      "stateMutability": "nonpayable"
    },
    {
      "type": "function",
      "name": "transferFrom",
      "inputs": [
        {
          "name": "from",
          "type": "address",
          "internalType": "address"
        },
        {
          "name": "to",
          "type": "address",
          "internalType": "address"
        },
        {
          "name": "value",
          "type": "uint256",
          "internalType": "uint256"
        }
      ],
      "outputs": [
        {
          "name": "",
          "type": "bool",
          "internalType": "bool"
        }
      ],
      "stateMutability": "nonpayable"
    },
    {
      "type": "function",
      "name": "transferOwnership",
      "inputs": [
        {
          "name": "newOwner",
          "type": "address",
          "internalType": "address"
        }
      ],
      "outputs": [],
      "stateMutability": "nonpayable"
    },
    {
      "type": "function",
      "name": "unpause",
      "inputs": [],
      "outputs": [],
      "stateMutability": "nonpayable"
    },
    {
      "type": "function",
      "name": "updateGameLimit",
      "inputs": [
        {
          "name": "game",
          "type": "address",
          "internalType": "address"
        },
        {
          "name": "newLimit",
          "type": "uint256",
          "internalType": "uint256"
        }
      ],
      "outputs": [],
      "stateMutability": "nonpayable"
    },
    {
      "type": "function",
      "name": "whitelistGame",
      "inputs": [
        {
          "name": "game",
          "type": "address",
          "internalType": "address"
        },
        {
          "name": "limit",
          "type": "uint256",
          "internalType": "uint256"
        }
      ],
      "outputs": [],
      "stateMutability": "nonpayable"
    },
    {
      "type": "event",
      "name": "Airdrop",
      "inputs": [
        {
          "name": "recipient",
          "type": "address",
          "indexed": true,
          "internalType": "address"
        },
        {
          "name": "amount",
          "type": "uint256",
          "indexed": false,
          "internalType": "uint256"
        }
      ],
      "anonymous": false
    },
    {
      "type": "event",
      "name": "Approval",
      "inputs": [
        {
          "name": "owner",
          "type": "address",
          "indexed": true,
          "internalType": "address"
        },
        {
          "name": "spender",
          "type": "address",
          "indexed": true,
          "internalType": "address"
        },
        {
          "name": "value",
          "type": "uint256",
          "indexed": false,
          "internalType": "uint256"
        }
      ],
      "anonymous": false
    },
    {
      "type": "event",
      "name": "Blacklisted",
      "inputs": [
        {
          "name": "account",
          "type": "address",
          "indexed": true,
          "internalType": "address"
        },
        {
          "name": "value",
          "type": "bool",
          "indexed": false,
          "internalType": "bool"
        }
      ],
      "anonymous": false
    },
    {
      "type": "event",
      "name": "GameLimitUpdated",
      "inputs": [
        {
          "name": "game",
          "type": "address",
          "indexed": true,
          "internalType": "address"
        },
        {
          "name": "newLimit",
          "type": "uint256",
          "indexed": false,
          "internalType": "uint256"
        }
      ],
      "anonymous": false
    },
    {
      "type": "event",
      "name": "GameWhitelisted",
      "inputs": [
        {
          "name": "game",
          "type": "address",
          "indexed": true,
          "internalType": "address"
        },
        {
          "name": "limit",
          "type": "uint256",
          "indexed": false,
          "internalType": "uint256"
        }
      ],
      "anonymous": false
    },
    {
      "type": "event",
      "name": "Initialized",
      "inputs": [
        {
          "name": "version",
          "type": "uint64",
          "indexed": false,
          "internalType": "uint64"
        }
      ],
      "anonymous": false
    },
    {
      "type": "event",
      "name": "OwnershipTransferred",
      "inputs": [
        {
          "name": "previousOwner",
          "type": "address",
          "indexed": true,
          "internalType": "address"
        },
        {
          "name": "newOwner",
          "type": "address",
          "indexed": true,
          "internalType": "address"
        }
      ],
      "anonymous": false
    },
    {
      "type": "event",
      "name": "Paused",
      "inputs": [
        {
          "name": "account",
          "type": "address",
          "indexed": false,
          "internalType": "address"
        }
      ],
      "anonymous": false
    },
    {
      "type": "event",
      "name": "Transfer",
      "inputs": [
        {
          "name": "from",
          "type": "address",
          "indexed": true,
          "internalType": "address"
        },
        {
          "name": "to",
          "type": "address",
          "indexed": true,
          "internalType": "address"
        },
        {
          "name": "value",
          "type": "uint256",
          "indexed": false,
          "internalType": "uint256"
        }
      ],
      "anonymous": false
    },
    {
      "type": "event",
      "name": "Unpaused",
      "inputs": [
        {
          "name": "account",
          "type": "address",
          "indexed": false,
          "internalType": "address"
        }
      ],
      "anonymous": false
    },
    {
      "type": "error",
      "name": "ERC20InsufficientAllowance",
      "inputs": [
        {
          "name": "spender",
          "type": "address",
          "internalType": "address"
        },
        {
          "name": "allowance",
          "type": "uint256",
          "internalType": "uint256"
        },
        {
          "name": "needed",
          "type": "uint256",
          "internalType": "uint256"
        }
      ]
    },
    {
      "type": "error",
      "name": "ERC20InsufficientBalance",
      "inputs": [
        {
          "name": "sender",
          "type": "address",
          "internalType": "address"
        },
        {
          "name": "balance",
          "type": "uint256",
          "internalType": "uint256"
        },
        {
          "name": "needed",
          "type": "uint256",
          "internalType": "uint256"
        }
      ]
    },
    {
      "type": "error",
      "name": "ERC20InvalidApprover",
      "inputs": [
        {
          "name": "approver",
          "type": "address",
          "internalType": "address"
        }
      ]
    },
    {
      "type": "error",
      "name": "ERC20InvalidReceiver",
      "inputs": [
        {
          "name": "receiver",
          "type": "address",
          "internalType": "address"
        }
      ]
    },
    {
      "type": "error",
      "name": "ERC20InvalidSender",
      "inputs": [
        {
          "name": "sender",
          "type": "address",
          "internalType": "address"
        }
      ]
    },
    {
      "type": "error",
      "name": "ERC20InvalidSpender",
      "inputs": [
        {
          "name": "spender",
          "type": "address",
          "internalType": "address"
        }
      ]
    },
    {
      "type": "error",
      "name": "EnforcedPause",
      "inputs": []
    },
    {
      "type": "error",
      "name": "ExpectedPause",
      "inputs": []
    },
    {
      "type": "error",
      "name": "InvalidInitialization",
      "inputs": []
    },
    {
      "type": "error",
      "name": "NotInitializing",
      "inputs": []
    },
    {
      "type": "error",
      "name": "OwnableInvalidOwner",
      "inputs": [
        {
          "name": "owner",
          "type": "address",
          "internalType": "address"
        }
      ]
    },
    {
      "type": "error",
      "name": "OwnableUnauthorizedAccount",
      "inputs": [
        {
          "name": "account",
          "type": "address",
          "internalType": "address"
        }
      ]
    }
  ],
  "bytecode": {
    "object": "0x6080806040523460aa575f5160206125ca5f395f51905f525460ff8160401c16609b576002600160401b03196001600160401b038216016049575b60405161251b90816100af8239f35b6001600160401b0319166001600160401b039081175f5160206125ca5f395f51905f525581527fc7f505b2f371ae2175ee4913f4499e1f2633a7b5936321eed1cdaeb6115181d290602090a15f80603a565b63f92ee8a960e01b5f5260045ffd5b5f80fdfe60806040526004361015610011575f80fd5b5f3560e01c806306fdde03146117d8578063095ea7b3146116d05780630ca1c5c9146116b3578063153b0d1e1461160b57806318160ddd146115cf57806323b872dd1461159757806330119c7e146101c6578063313ce5671461157c578063356afe7114610b575780633f4ba83a146114a157806340c10f191461135957806342966c68146113185780635c975abb146112d757806367243482146110955780636f97e31c1461106c57806370a0823114611008578063715018a614610f4c57806379cc679014610edf5780637b499bd414610ec25780637b56138c14610dd95780638456cb5914610d245780638da5cb5b14610cd257806395d89b4114610b9c578063a0bb6f0014610b57578063a9059cbb14610b26578063c626c52e14610adc578063da35a26f146103d7578063dc6ec665146102c9578063dd62ed3e14610236578063f2fde38b1461020b578063f8363e11146101c65763fe575a8714610179575f80fd5b346101c25760206003193601126101c25773ffffffffffffffffffffffffffffffffffffffff6101a7611903565b165f525f602052602060ff60405f2054166040519015158152f35b5f80fd5b346101c25760206003193601126101c25773ffffffffffffffffffffffffffffffffffffffff6101f4611903565b165f526003602052602060405f2054604051908152f35b346101c25760206003193601126101c257610234610227611903565b61022f611d32565b611c45565b005b346101c25760406003193601126101c25761024f611903565b73ffffffffffffffffffffffffffffffffffffffff6102b361026f611926565b9273ffffffffffffffffffffffffffffffffffffffff165f527f52c63247e1f47db19d5ce0460030c497f067ca4cebf71ba98eeadabe20bace0160205260405f2090565b91165f52602052602060405f2054604051908152f35b346101c25760406003193601126101c2576102e2611903565b73ffffffffffffffffffffffffffffffffffffffff60243591610303611d32565b169081156103795760207ff9c3fe99ca325967089a8bdddca9eb9435f199bc0628e81348954b1e9fd417b191835f526001825260405f2060017fffffffffffffffffffffffffffffffffffffffffffffffffffffffffffffff00825416179055835f52600282528060405f2055604051908152a2005b60646040517f08c379a000000000000000000000000000000000000000000000000000000000815260206004820152600f60248201527f496e76616c6964206164647265737300000000000000000000000000000000006044820152fd5b346101c25760406003193601126101c2576103f0611926565b7ff0c57e16840df040f15088dc2f81fe391c3923bec73e23a9662efc9c229c6a005460ff8160401c16159067ffffffffffffffff811680159081610ad4575b6001149081610aca575b159081610ac1575b50610a99578160017fffffffffffffffffffffffffffffffffffffffffffffffff00000000000000008316177ff0c57e16840df040f15088dc2f81fe391c3923bec73e23a9662efc9c229c6a0055610a44575b50604051916104a46040846119cb565b600a83527f47616d6120546f6b656e0000000000000000000000000000000000000000000060208401526040516104dc6040826119cb565b600481527f47414d4100000000000000000000000000000000000000000000000000000000602082015261050e61248e565b61051661248e565b835167ffffffffffffffff81116108ac576105517f52c63247e1f47db19d5ce0460030c497f067ca4cebf71ba98eeadabe20bace035461197a565b601f81116109c2575b50602094601f82116001146108e4579481929394955f926108d9575b50507fffffffffffffffffffffffffffffffffffffffffffffffffffffffffffffffff8260011b9260031b1c1916177f52c63247e1f47db19d5ce0460030c497f067ca4cebf71ba98eeadabe20bace03555b80519067ffffffffffffffff82116108ac576106047f52c63247e1f47db19d5ce0460030c497f067ca4cebf71ba98eeadabe20bace045461197a565b601f811161082a575b50602090601f83116001146107465761068c9392915f918361073b575b50507fffffffffffffffffffffffffffffffffffffffffffffffffffffffffffffffff8260011b9260031b1c1916177f52c63247e1f47db19d5ce0460030c497f067ca4cebf71ba98eeadabe20bace04555b61068461248e565b61022f61248e565b61069461248e565b61069c61248e565b6004356004556106a857005b7fffffffffffffffffffffffffffffffffffffffffffffff00ffffffffffffffff7ff0c57e16840df040f15088dc2f81fe391c3923bec73e23a9662efc9c229c6a0054167ff0c57e16840df040f15088dc2f81fe391c3923bec73e23a9662efc9c229c6a00557fc7f505b2f371ae2175ee4913f4499e1f2633a7b5936321eed1cdaeb6115181d2602060405160018152a1005b01519050858061062a565b907fffffffffffffffffffffffffffffffffffffffffffffffffffffffffffffffe08316917f52c63247e1f47db19d5ce0460030c497f067ca4cebf71ba98eeadabe20bace045f52815f20925f5b818110610812575091600193918561068c979694106107db575b505050811b017f52c63247e1f47db19d5ce0460030c497f067ca4cebf71ba98eeadabe20bace045561067c565b01517fffffffffffffffffffffffffffffffffffffffffffffffffffffffffffffffff60f88460031b161c191690558580806107ae565b92936020600181928786015181550195019301610794565b7f52c63247e1f47db19d5ce0460030c497f067ca4cebf71ba98eeadabe20bace045f527f46a2803e59a4de4e7a4c574b1243f25977ac4c77d5a1a4a609b5394cebb4a2aa601f840160051c810191602085106108a2575b601f0160051c01905b818110610897575061060d565b5f815560010161088a565b9091508190610881565b7f4e487b71000000000000000000000000000000000000000000000000000000005f52604160045260245ffd5b015190508580610576565b7fffffffffffffffffffffffffffffffffffffffffffffffffffffffffffffffe08216957f52c63247e1f47db19d5ce0460030c497f067ca4cebf71ba98eeadabe20bace035f52805f20915f5b8881106109aa57508360019596979810610973575b505050811b017f52c63247e1f47db19d5ce0460030c497f067ca4cebf71ba98eeadabe20bace03556105c8565b01517fffffffffffffffffffffffffffffffffffffffffffffffffffffffffffffffff60f88460031b161c19169055858080610946565b91926020600181928685015181550194019201610931565b7f52c63247e1f47db19d5ce0460030c497f067ca4cebf71ba98eeadabe20bace035f527f2ae08a8e29253f69ac5d979a101956ab8f8d9d7ded63fa7a83b16fc47648eab0601f830160051c81019160208410610a3a575b601f0160051c01905b818110610a2f575061055a565b5f8155600101610a22565b9091508190610a19565b7fffffffffffffffffffffffffffffffffffffffffffffff0000000000000000001668010000000000000001177ff0c57e16840df040f15088dc2f81fe391c3923bec73e23a9662efc9c229c6a005582610494565b7ff92ee8a9000000000000000000000000000000000000000000000000000000005f5260045ffd5b90501584610441565b303b159150610439565b83915061042f565b346101c25760206003193601126101c25773ffffffffffffffffffffffffffffffffffffffff610b0a611903565b165f526001602052602060ff60405f2054166040519015158152f35b346101c25760406003193601126101c257610b4c610b42611903565b6024359033611f34565b602060405160018152f35b346101c25760206003193601126101c25773ffffffffffffffffffffffffffffffffffffffff610b85611903565b165f526002602052602060405f2054604051908152f35b346101c2575f6003193601126101c2576040515f7f52c63247e1f47db19d5ce0460030c497f067ca4cebf71ba98eeadabe20bace0454610bdb8161197a565b8084529060018116908115610c905750600114610c13575b610c0f83610c03818503826119cb565b604051918291826118bb565b0390f35b7f52c63247e1f47db19d5ce0460030c497f067ca4cebf71ba98eeadabe20bace045f9081527f46a2803e59a4de4e7a4c574b1243f25977ac4c77d5a1a4a609b5394cebb4a2aa939250905b808210610c7657509091508101602001610c03610bf3565b919260018160209254838588010152019101909291610c5e565b7fffffffffffffffffffffffffffffffffffffffffffffffffffffffffffffff001660208086019190915291151560051b84019091019150610c039050610bf3565b346101c2575f6003193601126101c257602073ffffffffffffffffffffffffffffffffffffffff7f9016d09d72d40fdae2fd8ceac6b6234c7706214fd39c1cd1e609a0528c1993005416604051908152f35b346101c2575f6003193601126101c257610d3c611d32565b610d44612174565b60017fffffffffffffffffffffffffffffffffffffffffffffffffffffffffffffff007fcd5ed15c6e187e77e9aee88184c21f4f2182ab5827cb3b7e07fbedcd63f033005416177fcd5ed15c6e187e77e9aee88184c21f4f2182ab5827cb3b7e07fbedcd63f03300557f62e78cea01bee320cd4e420270b5ea74000d11b0c9f74754ebdbfc544b05a2586020604051338152a1005b346101c25760406003193601126101c257610df2611903565b73ffffffffffffffffffffffffffffffffffffffff60243591610e13611d32565b1690815f52600160205260ff60405f20541615610e645760207fb48a0d614d1840de19f4c694f942d737ee834634cd07d4d11952a2154070b8a591835f52600282528060405f2055604051908152a2005b60646040517f08c379a000000000000000000000000000000000000000000000000000000000815260206004820152601460248201527f47616d65206e6f742077686974656c69737465640000000000000000000000006044820152fd5b346101c2575f6003193601126101c2576020600454604051908152f35b346101c25760406003193601126101c257610f47610efb611903565b610f336024358092610f0b612174565b335f526001602052610f2360ff60405f205416611a0c565b610f2e823383611d9e565b6122eb565b600554610f4282821015611b75565b611bda565b600555005b346101c2575f6003193601126101c257610f64611d32565b5f73ffffffffffffffffffffffffffffffffffffffff7f9016d09d72d40fdae2fd8ceac6b6234c7706214fd39c1cd1e609a0528c199300547fffffffffffffffffffffffff000000000000000000000000000000000000000081167f9016d09d72d40fdae2fd8ceac6b6234c7706214fd39c1cd1e609a0528c19930055167f8be0079c531659141344cd1fd0a4f28419497f9722a3daafe3b4186f6b6457e08280a3005b346101c25760206003193601126101c25773ffffffffffffffffffffffffffffffffffffffff611036611903565b165f527f52c63247e1f47db19d5ce0460030c497f067ca4cebf71ba98eeadabe20bace00602052602060405f2054604051908152f35b346101c2575f6003193601126101c257602061108d60045460055490611bda565b604051908152f35b346101c25760406003193601126101c25760043567ffffffffffffffff81116101c2576110c6903690600401611949565b9060243567ffffffffffffffff81116101c2576110e7903690600401611949565b6110ef611d32565b6110f7612174565b808403611279575f935f5b8181106111c5575061112361111986600554611ad6565b6004541015611b10565b5f5b81811061113857610f4786600554611ad6565b8061116361115161114c600194868a611be7565b611c24565b61115c838789611be7565b35906121c7565b61117161114c828589611be7565b7f8c32c568416fcf97be35ce5b27844cfddcd63a67a1a602c3595ba5dac38f303a602073ffffffffffffffffffffffffffffffffffffffff6111b485898b611be7565b35936040519485521692a201611125565b9473ffffffffffffffffffffffffffffffffffffffff6111e961114c888589611be7565b165f525f60205260ff60405f20541661121b5761121460019161120d888688611be7565b3590611ad6565b9501611102565b60646040517f08c379a000000000000000000000000000000000000000000000000000000000815260206004820152601860248201527f526563697069656e7420697320626c61636b6c697374656400000000000000006044820152fd5b60646040517f08c379a000000000000000000000000000000000000000000000000000000000815260206004820152600f60248201527f4c656e677468206d69736d6174636800000000000000000000000000000000006044820152fd5b346101c2575f6003193601126101c257602060ff7fcd5ed15c6e187e77e9aee88184c21f4f2182ab5827cb3b7e07fbedcd63f0330054166040519015158152f35b346101c25760206003193601126101c257610f47600435611337612174565b335f52600160205261134f60ff60405f205416611a0c565b610f3381336122eb565b346101c25760406003193601126101c257611372611903565b60243561137d612174565b335f52600160205261139560ff60405f205416611a0c565b73ffffffffffffffffffffffffffffffffffffffff82165f525f60205260ff60405f2054161580611486575b6113ca90611a71565b335f5260036020526113e08160405f2054611ad6565b91335f52600260205260405f20548311611428576102349261140483600554611ad6565b90611413600454831115611b10565b335f52600360205260405f20556005556121c7565b60646040517f08c379a000000000000000000000000000000000000000000000000000000000815260206004820152601860248201527f47616d65206d696e74206c696d697420657863656564656400000000000000006044820152fd5b50335f525f6020526113ca60ff60405f2054161590506113c1565b346101c2575f6003193601126101c2576114b9611d32565b7fcd5ed15c6e187e77e9aee88184c21f4f2182ab5827cb3b7e07fbedcd63f033005460ff811615611554577fffffffffffffffffffffffffffffffffffffffffffffffffffffffffffffff00167fcd5ed15c6e187e77e9aee88184c21f4f2182ab5827cb3b7e07fbedcd63f03300557f5db9ee0a495bf2e6ff9c91a7834c1ba4fdd244a5e8aa4e537bd38aeae4b073aa6020604051338152a1005b7f8dfc202b000000000000000000000000000000000000000000000000000000005f5260045ffd5b346101c2575f6003193601126101c257602060405160128152f35b346101c25760606003193601126101c257610b4c6115b3611903565b6115bb611926565b604435916115ca833383611d9e565b611f34565b346101c2575f6003193601126101c25760207f52c63247e1f47db19d5ce0460030c497f067ca4cebf71ba98eeadabe20bace0254604051908152f35b346101c25760406003193601126101c257611624611903565b602435908115158092036101c257602073ffffffffffffffffffffffffffffffffffffffff7fcf3473b85df1594d47b6958f29a32bea0abff9dd68296f7bf33443646793cfd892611673611d32565b1692835f525f825260405f207fffffffffffffffffffffffffffffffffffffffffffffffffffffffffffffff0081541660ff8316179055604051908152a2005b346101c2575f6003193601126101c2576020600554604051908152f35b346101c25760406003193601126101c2576116e9611903565b6024359033156117ac5773ffffffffffffffffffffffffffffffffffffffff1690811561178057335f9081527f52c63247e1f47db19d5ce0460030c497f067ca4cebf71ba98eeadabe20bace0160205260409020825f526020528060405f20556040519081527f8c5be1e5ebec7d5bd14f71427d1e84f3dd0314c0f7b2291e5b200ac8c7c3b92560203392a3602060405160018152f35b7f94280d62000000000000000000000000000000000000000000000000000000005f525f60045260245ffd5b7fe602df05000000000000000000000000000000000000000000000000000000005f525f60045260245ffd5b346101c2575f6003193601126101c2576040515f7f52c63247e1f47db19d5ce0460030c497f067ca4cebf71ba98eeadabe20bace03546118178161197a565b8084529060018116908115610c90575060011461183e57610c0f83610c03818503826119cb565b7f52c63247e1f47db19d5ce0460030c497f067ca4cebf71ba98eeadabe20bace035f9081527f2ae08a8e29253f69ac5d979a101956ab8f8d9d7ded63fa7a83b16fc47648eab0939250905b8082106118a157509091508101602001610c03610bf3565b919260018160209254838588010152019101909291611889565b7fffffffffffffffffffffffffffffffffffffffffffffffffffffffffffffffe0601f602060409481855280519182918282880152018686015e5f8582860101520116010190565b6004359073ffffffffffffffffffffffffffffffffffffffff821682036101c257565b6024359073ffffffffffffffffffffffffffffffffffffffff821682036101c257565b9181601f840112156101c25782359167ffffffffffffffff83116101c2576020808501948460051b0101116101c257565b90600182811c921680156119c1575b602083101461199457565b7f4e487b71000000000000000000000000000000000000000000000000000000005f52602260045260245ffd5b91607f1691611989565b90601f7fffffffffffffffffffffffffffffffffffffffffffffffffffffffffffffffe0910116810190811067ffffffffffffffff8211176108ac57604052565b15611a1357565b60646040517f08c379a000000000000000000000000000000000000000000000000000000000815260206004820152601c60248201527f4e6f7420617574686f72697a65642067616d6520636f6e7472616374000000006044820152fd5b15611a7857565b60646040517f08c379a000000000000000000000000000000000000000000000000000000000815260206004820152601360248201527f426c61636b6c69737465642061646472657373000000000000000000000000006044820152fd5b91908201809211611ae357565b7f4e487b71000000000000000000000000000000000000000000000000000000005f52601160045260245ffd5b15611b1757565b60646040517f08c379a000000000000000000000000000000000000000000000000000000000815260206004820152601a60248201527f476c6f62616c206d696e74206c696d69742065786365656465640000000000006044820152fd5b15611b7c57565b60646040517f08c379a000000000000000000000000000000000000000000000000000000000815260206004820152601960248201527f4275726e206578636565647320746f74616c206d696e746564000000000000006044820152fd5b91908203918211611ae357565b9190811015611bf75760051b0190565b7f4e487b71000000000000000000000000000000000000000000000000000000005f52603260045260245ffd5b3573ffffffffffffffffffffffffffffffffffffffff811681036101c25790565b73ffffffffffffffffffffffffffffffffffffffff168015611d065773ffffffffffffffffffffffffffffffffffffffff7f9016d09d72d40fdae2fd8ceac6b6234c7706214fd39c1cd1e609a0528c19930054827fffffffffffffffffffffffff00000000000000000000000000000000000000008216177f9016d09d72d40fdae2fd8ceac6b6234c7706214fd39c1cd1e609a0528c19930055167f8be0079c531659141344cd1fd0a4f28419497f9722a3daafe3b4186f6b6457e05f80a3565b7f1e4fbdf7000000000000000000000000000000000000000000000000000000005f525f60045260245ffd5b73ffffffffffffffffffffffffffffffffffffffff7f9016d09d72d40fdae2fd8ceac6b6234c7706214fd39c1cd1e609a0528c19930054163303611d7257565b7f118cdaa7000000000000000000000000000000000000000000000000000000005f523360045260245ffd5b9190611de78373ffffffffffffffffffffffffffffffffffffffff165f527f52c63247e1f47db19d5ce0460030c497f067ca4cebf71ba98eeadabe20bace0160205260405f2090565b73ffffffffffffffffffffffffffffffffffffffff82165f5260205260405f2054927fffffffffffffffffffffffffffffffffffffffffffffffffffffffffffffffff8410611e37575b50505050565b828410611eea5773ffffffffffffffffffffffffffffffffffffffff8116156117ac5773ffffffffffffffffffffffffffffffffffffffff82161561178057611ed273ffffffffffffffffffffffffffffffffffffffff9173ffffffffffffffffffffffffffffffffffffffff165f527f52c63247e1f47db19d5ce0460030c497f067ca4cebf71ba98eeadabe20bace0160205260405f2090565b91165f5260205260405f20910390555f808080611e31565b5073ffffffffffffffffffffffffffffffffffffffff83917ffb8f41b2000000000000000000000000000000000000000000000000000000005f521660045260245260445260645ffd5b73ffffffffffffffffffffffffffffffffffffffff169081156121485773ffffffffffffffffffffffffffffffffffffffff1691821561211c5760ff7fcd5ed15c6e187e77e9aee88184c21f4f2182ab5827cb3b7e07fbedcd63f0330054166120be57815f525f60205260ff60405f20541615806120a6575b611fb690611a71565b815f527f52c63247e1f47db19d5ce0460030c497f067ca4cebf71ba98eeadabe20bace0060205260405f205481811061207457817fddf252ad1be2c89b69c2b068fc378daa952ba7f163c4a11628f55a4df523b3ef92602092855f527f52c63247e1f47db19d5ce0460030c497f067ca4cebf71ba98eeadabe20bace0084520360405f2055845f527f52c63247e1f47db19d5ce0460030c497f067ca4cebf71ba98eeadabe20bace00825260405f20818154019055604051908152a3565b827fe450d38c000000000000000000000000000000000000000000000000000000005f5260045260245260445260645ffd5b505f8381526020819052604090205460ff1615611fad565b60646040517f08c379a000000000000000000000000000000000000000000000000000000000815260206004820152601660248201527f546f6b656e207472616e736665727320706175736564000000000000000000006044820152fd5b7fec442f05000000000000000000000000000000000000000000000000000000005f525f60045260245ffd5b7f96c6fd1e000000000000000000000000000000000000000000000000000000005f525f60045260245ffd5b60ff7fcd5ed15c6e187e77e9aee88184c21f4f2182ab5827cb3b7e07fbedcd63f03300541661219f57565b7fd93c0665000000000000000000000000000000000000000000000000000000005f5260045ffd5b73ffffffffffffffffffffffffffffffffffffffff1690811561211c5760ff7fcd5ed15c6e187e77e9aee88184c21f4f2182ab5827cb3b7e07fbedcd63f0330054166120be577fddf252ad1be2c89b69c2b068fc378daa952ba7f163c4a11628f55a4df523b3ef60205f9283805283825260ff60408520541615806122d6575b61225090611a71565b61227b817f52c63247e1f47db19d5ce0460030c497f067ca4cebf71ba98eeadabe20bace0254611ad6565b7f52c63247e1f47db19d5ce0460030c497f067ca4cebf71ba98eeadabe20bace02558484527f52c63247e1f47db19d5ce0460030c497f067ca4cebf71ba98eeadabe20bace00825260408420818154019055604051908152a3565b50848452838252604084205460ff1615612247565b90919073ffffffffffffffffffffffffffffffffffffffff1680156121485760ff7fcd5ed15c6e187e77e9aee88184c21f4f2182ab5827cb3b7e07fbedcd63f0330054166120be57805f525f60205260ff60405f205416158061245b575b61235290611a71565b805f527f52c63247e1f47db19d5ce0460030c497f067ca4cebf71ba98eeadabe20bace0060205260405f2054838110612428576020845f94957fddf252ad1be2c89b69c2b068fc378daa952ba7f163c4a11628f55a4df523b3ef938587527f52c63247e1f47db19d5ce0460030c497f067ca4cebf71ba98eeadabe20bace008452036040862055807f52c63247e1f47db19d5ce0460030c497f067ca4cebf71ba98eeadabe20bace0254037f52c63247e1f47db19d5ce0460030c497f067ca4cebf71ba98eeadabe20bace0255604051908152a3565b91507fe450d38c000000000000000000000000000000000000000000000000000000005f5260045260245260445260645ffd5b505f8080526020527fad3228b676f7d3cd4284a5443f17f1962b36e491b30a40b2405849e597ba5fb55460ff1615612349565b60ff7ff0c57e16840df040f15088dc2f81fe391c3923bec73e23a9662efc9c229c6a005460401c16156124bd57565b7fd7e6bcf8000000000000000000000000000000000000000000000000000000005f5260045ffdfea26469706673582212201cc88eeebcb333add478e913525edc1bdef3229c2a51c68b161f07275d4806fe64736f6c634300081c0033f0c57e16840df040f15088dc2f81fe391c3923bec73e23a9662efc9c229c6a00",
    "linkReferences": {}
  },
  "methodIdentifiers": {
    "airdrop(address[],uint256[])": "67243482",
    "allowance(address,address)": "dd62ed3e",
    "approve(address,uint256)": "095ea7b3",
    "balanceOf(address)": "70a08231",
    "burn(uint256)": "42966c68",
    "burnFrom(address,uint256)": "79cc6790",
    "decimals()": "313ce567",
    "gameMintLimit(address)": "a0bb6f00",
    "gameMinted(address)": "30119c7e",
    "getGameLimit(address)": "356afe71",
    "getGameMinted(address)": "f8363e11",
    "getMaxMintable()": "7b499bd4",
    "getRemainingMintable()": "6f97e31c",
    "getTotalMinted()": "0ca1c5c9",
    "initialize(uint256,address)": "da35a26f",
    "isBlacklisted(address)": "fe575a87",
    "isGame(address)": "c626c52e",
    "mint(address,uint256)": "40c10f19",
    "name()": "06fdde03",
    "owner()": "8da5cb5b",
    "pause()": "8456cb59",
    "paused()": "5c975abb",
    "renounceOwnership()": "715018a6",
    "setBlacklist(address,bool)": "153b0d1e",
    "symbol()": "95d89b41",
    "totalSupply()": "18160ddd",
    "transfer(address,uint256)": "a9059cbb",
    "transferFrom(address,address,uint256)": "23b872dd",
    "transferOwnership(address)": "f2fde38b",
    "unpause()": "3f4ba83a",
    "updateGameLimit(address,uint256)": "7b56138c",
    "whitelistGame(address,uint256)": "dc6ec665"
  },
  "id": 37
}