{
  "abi": [
    {
      "type": "constructor",
      "inputs": [],
      "stateMutability": "nonpayable"
    },
    {
      "type": "function",
      "name": "BURNER_ROLE",
      "inputs": [],
      "outputs": [
        {
          "name": "",
          "type": "bytes32",
          "internalType": "bytes32"
        }
      ],
      "stateMutability": "view"
    },
    {
      "type": "function",
      "name": "DEFAULT_ADMIN_ROLE",
      "inputs": [],
      "outputs": [
        {
          "name": "",
          "type": "bytes32",
          "internalType": "bytes32"
        }
      ],
      "stateMutability": "view"
    },
    {
      "type": "function",
      "name": "GAME_CONTRACT_ROLE",
      "inputs": [],
      "outputs": [
        {
          "name": "",
          "type": "bytes32",
          "internalType": "bytes32"
        }
      ],
      "stateMutability": "view"
    },
    {
      "type": "function",
      "name": "MINTER_ROLE",
      "inputs": [],
      "outputs": [
        {
          "name": "",
          "type": "bytes32",
          "internalType": "bytes32"
        }
      ],
      "stateMutability": "view"
    },
    {
      "type": "function",
      "name": "allowance",
      "inputs": [
        {
          "name": "owner",
          "type": "address",
          "internalType": "address"
        },
        {
          "name": "spender",
          "type": "address",
          "internalType": "address"
        }
      ],
      "outputs": [
        {
          "name": "",
          "type": "uint256",
          "internalType": "uint256"
        }
      ],
      "stateMutability": "view"
    },
    {
      "type": "function",
      "name": "approve",
      "inputs": [
        {
          "name": "spender",
          "type": "address",
          "internalType": "address"
        },
        {
          "name": "value",
          "type": "uint256",
          "internalType": "uint256"
        }
      ],
      "outputs": [
        {
          "name": "",
          "type": "bool",
          "internalType": "bool"
        }
      ],
      "stateMutability": "nonpayable"
    },
    {
      "type": "function",
      "name": "balanceOf",
      "inputs": [
        {
          "name": "account",
          "type": "address",
          "internalType": "address"
        }
      ],
      "outputs": [
        {
          "name": "",
          "type": "uint256",
          "internalType": "uint256"
        }
      ],
      "stateMutability": "view"
    },
    {
      "type": "function",
      "name": "burn",
      "inputs": [
        {
          "name": "value",
          "type": "uint256",
          "internalType": "uint256"
        }
      ],
      "outputs": [],
      "stateMutability": "nonpayable"
    },
    {
      "type": "function",
      "name": "burn",
      "inputs": [
        {
          "name": "from",
          "type": "address",
          "internalType": "address"
        },
        {
          "name": "amount",
          "type": "uint256",
          "internalType": "uint256"
        }
      ],
      "outputs": [],
      "stateMutability": "nonpayable"
    },
    {
      "type": "function",
      "name": "burnFrom",
      "inputs": [
        {
          "name": "account",
          "type": "address",
          "internalType": "address"
        },
        {
          "name": "value",
          "type": "uint256",
          "internalType": "uint256"
        }
      ],
      "outputs": [],
      "stateMutability": "nonpayable"
    },
    {
      "type": "function",
      "name": "decimals",
      "inputs": [],
      "outputs": [
        {
          "name": "",
          "type": "uint8",
          "internalType": "uint8"
        }
      ],
      "stateMutability": "view"
    },
    {
      "type": "function",
      "name": "getRoleAdmin",
      "inputs": [
        {
          "name": "role",
          "type": "bytes32",
          "internalType": "bytes32"
        }
      ],
      "outputs": [
        {
          "name": "",
          "type": "bytes32",
          "internalType": "bytes32"
        }
      ],
      "stateMutability": "view"
    },
    {
      "type": "function",
      "name": "grantBurnerRole",
      "inputs": [
        {
          "name": "account",
          "type": "address",
          "internalType": "address"
        }
      ],
      "outputs": [],
      "stateMutability": "nonpayable"
    },
    {
      "type": "function",
      "name": "grantGameContractRole",
      "inputs": [
        {
          "name": "account",
          "type": "address",
          "internalType": "address"
        }
      ],
      "outputs": [],
      "stateMutability": "nonpayable"
    },
    {
      "type": "function",
      "name": "grantMinterRole",
      "inputs": [
        {
          "name": "account",
          "type": "address",
          "internalType": "address"
        }
      ],
      "outputs": [],
      "stateMutability": "nonpayable"
    },
    {
      "type": "function",
      "name": "grantRole",
      "inputs": [
        {
          "name": "role",
          "type": "bytes32",
          "internalType": "bytes32"
        },
        {
          "name": "account",
          "type": "address",
          "internalType": "address"
        }
      ],
      "outputs": [],
      "stateMutability": "nonpayable"
    },
    {
      "type": "function",
      "name": "hasRole",
      "inputs": [
        {
          "name": "role",
          "type": "bytes32",
          "internalType": "bytes32"
        },
        {
          "name": "account",
          "type": "address",
          "internalType": "address"
        }
      ],
      "outputs": [
        {
          "name": "",
          "type": "bool",
          "internalType": "bool"
        }
      ],
      "stateMutability": "view"
    },
    {
      "type": "function",
      "name": "mint",
      "inputs": [
        {
          "name": "to",
          "type": "address",
          "internalType": "address"
        },
        {
          "name": "amount",
          "type": "uint256",
          "internalType": "uint256"
        }
      ],
      "outputs": [],
      "stateMutability": "nonpayable"
    },
    {
      "type": "function",
      "name": "mintAndTransfer",
      "inputs": [
        {
          "name": "to",
          "type": "address",
          "internalType": "address"
        },
        {
          "name": "amount",
          "type": "uint256",
          "internalType": "uint256"
        }
      ],
      "outputs": [],
      "stateMutability": "nonpayable"
    },
    {
      "type": "function",
      "name": "name",
      "inputs": [],
      "outputs": [
        {
          "name": "",
          "type": "string",
          "internalType": "string"
        }
      ],
      "stateMutability": "view"
    },
    {
      "type": "function",
      "name": "renounceRole",
      "inputs": [
        {
          "name": "role",
          "type": "bytes32",
          "internalType": "bytes32"
        },
        {
          "name": "callerConfirmation",
          "type": "address",
          "internalType": "address"
        }
      ],
      "outputs": [],
      "stateMutability": "nonpayable"
    },
    {
      "type": "function",
      "name": "revokeBurnerRole",
      "inputs": [
        {
          "name": "account",
          "type": "address",
          "internalType": "address"
        }
      ],
      "outputs": [],
      "stateMutability": "nonpayable"
    },
    {
      "type": "function",
      "name": "revokeGameContractRole",
      "inputs": [
        {
          "name": "account",
          "type": "address",
          "internalType": "address"
        }
      ],
      "outputs": [],
      "stateMutability": "nonpayable"
    },
    {
      "type": "function",
      "name": "revokeMinterRole",
      "inputs": [
        {
          "name": "account",
          "type": "address",
          "internalType": "address"
        }
      ],
      "outputs": [],
      "stateMutability": "nonpayable"
    },
    {
      "type": "function",
      "name": "revokeRole",
      "inputs": [
        {
          "name": "role",
          "type": "bytes32",
          "internalType": "bytes32"
        },
        {
          "name": "account",
          "type": "address",
          "internalType": "address"
        }
      ],
      "outputs": [],
      "stateMutability": "nonpayable"
    },
    {
      "type": "function",
      "name": "supportsInterface",
      "inputs": [
        {
          "name": "interfaceId",
          "type": "bytes4",
          "internalType": "bytes4"
        }
      ],
      "outputs": [
        {
          "name": "",
          "type": "bool",
          "internalType": "bool"
        }
      ],
      "stateMutability": "view"
    },
    {
      "type": "function",
      "name": "symbol",
      "inputs": [],
      "outputs": [
        {
          "name": "",
          "type": "string",
          "internalType": "string"
        }
      ],
      "stateMutability": "view"
    },
    {
      "type": "function",
      "name": "totalSupply",
      "inputs": [],
      "outputs": [
        {
          "name": "",
          "type": "uint256",
          "internalType": "uint256"
        }
      ],
      "stateMutability": "view"
    },
    {
      "type": "function",
      "name": "transfer",
      "inputs": [
        {
          "name": "to",
          "type": "address",
          "internalType": "address"
        },
        {
          "name": "value",
          "type": "uint256",
          "internalType": "uint256"
        }
      ],
      "outputs": [
        {
          "name": "",
          "type": "bool",
          "internalType": "bool"
        }
      ],
      "stateMutability": "nonpayable"
    },
    {
      "type": "function",
      "name": "transferFrom",
      "inputs": [
        {
          "name": "from",
          "type": "address",
          "internalType": "address"
        },
        {
          "name": "to",
          "type": "address",
          "internalType": "address"
        },
        {
          "name": "value",
          "type": "uint256",
          "internalType": "uint256"
        }
      ],
      "outputs": [
        {
          "name": "",
          "type": "bool",
          "internalType": "bool"
        }
      ],
      "stateMutability": "nonpayable"
    },
    {
      "type": "event",
      "name": "Approval",
      "inputs": [
        {
          "name": "owner",
          "type": "address",
          "indexed": true,
          "internalType": "address"
        },
        {
          "name": "spender",
          "type": "address",
          "indexed": true,
          "internalType": "address"
        },
        {
          "name": "value",
          "type": "uint256",
          "indexed": false,
          "internalType": "uint256"
        }
      ],
      "anonymous": false
    },
    {
      "type": "event",
      "name": "RoleAdminChanged",
      "inputs": [
        {
          "name": "role",
          "type": "bytes32",
          "indexed": true,
          "internalType": "bytes32"
        },
        {
          "name": "previousAdminRole",
          "type": "bytes32",
          "indexed": true,
          "internalType": "bytes32"
        },
        {
          "name": "newAdminRole",
          "type": "bytes32",
          "indexed": true,
          "internalType": "bytes32"
        }
      ],
      "anonymous": false
    },
    {
      "type": "event",
      "name": "RoleGranted",
      "inputs": [
        {
          "name": "role",
          "type": "bytes32",
          "indexed": true,
          "internalType": "bytes32"
        },
        {
          "name": "account",
          "type": "address",
          "indexed": true,
          "internalType": "address"
        },
        {
          "name": "sender",
          "type": "address",
          "indexed": true,
          "internalType": "address"
        }
      ],
      "anonymous": false
    },
    {
      "type": "event",
      "name": "RoleRevoked",
      "inputs": [
        {
          "name": "role",
          "type": "bytes32",
          "indexed": true,
          "internalType": "bytes32"
        },
        {
          "name": "account",
          "type": "address",
          "indexed": true,
          "internalType": "address"
        },
        {
          "name": "sender",
          "type": "address",
          "indexed": true,
          "internalType": "address"
        }
      ],
      "anonymous": false
    },
    {
      "type": "event",
      "name": "Transfer",
      "inputs": [
        {
          "name": "from",
          "type": "address",
          "indexed": true,
          "internalType": "address"
        },
        {
          "name": "to",
          "type": "address",
          "indexed": true,
          "internalType": "address"
        },
        {
          "name": "value",
          "type": "uint256",
          "indexed": false,
          "internalType": "uint256"
        }
      ],
      "anonymous": false
    },
    {
      "type": "error",
      "name": "AccessControlBadConfirmation",
      "inputs": []
    },
    {
      "type": "error",
      "name": "AccessControlUnauthorizedAccount",
      "inputs": [
        {
          "name": "account",
          "type": "address",
          "internalType": "address"
        },
        {
          "name": "neededRole",
          "type": "bytes32",
          "internalType": "bytes32"
        }
      ]
    },
    {
      "type": "error",
      "name": "ERC20InsufficientAllowance",
      "inputs": [
        {
          "name": "spender",
          "type": "address",
          "internalType": "address"
        },
        {
          "name": "allowance",
          "type": "uint256",
          "internalType": "uint256"
        },
        {
          "name": "needed",
          "type": "uint256",
          "internalType": "uint256"
        }
      ]
    },
    {
      "type": "error",
      "name": "ERC20InsufficientBalance",
      "inputs": [
        {
          "name": "sender",
          "type": "address",
          "internalType": "address"
        },
        {
          "name": "balance",
          "type": "uint256",
          "internalType": "uint256"
        },
        {
          "name": "needed",
          "type": "uint256",
          "internalType": "uint256"
        }
      ]
    },
    {
      "type": "error",
      "name": "ERC20InvalidApprover",
      "inputs": [
        {
          "name": "approver",
          "type": "address",
          "internalType": "address"
        }
      ]
    },
    {
      "type": "error",
      "name": "ERC20InvalidReceiver",
      "inputs": [
        {
          "name": "receiver",
          "type": "address",
          "internalType": "address"
        }
      ]
    },
    {
      "type": "error",
      "name": "ERC20InvalidSender",
      "inputs": [
        {
          "name": "sender",
          "type": "address",
          "internalType": "address"
        }
      ]
    },
    {
      "type": "error",
      "name": "ERC20InvalidSpender",
      "inputs": [
        {
          "name": "spender",
          "type": "address",
          "internalType": "address"
        }
      ]
    }
  ],
  "bytecode": {
    "object": "0x608060405234801561000f575f5ffd5b506040518060400160405280600981526020016823b0b6b09021b7b4b760b91b8152506040518060400160405280600481526020016347414d4160e01b815250816003908161005e91906103df565b50600461006b82826103df565b5050506100a13361008061013260201b60201c565b61008e9060ff16600a610590565b61009c906305f5e1006105a2565b610137565b6100ab5f33610174565b506100d67f9f2df0fed2c77648de5860a4cc508cd0818c85b8b8a1ab4ceeef8d981c8956a633610174565b506101017f3c11d16cbaffd01df69ce1c404f6340ee057498f5f00246190ea54220576a84833610174565b5061012c7f44718e3514ccd463314f14773a916bc580c9220f29745390a228f1242d73feb133610174565b506105cc565b601290565b6001600160a01b0382166101655760405163ec442f0560e01b81525f60048201526024015b60405180910390fd5b6101705f8383610221565b5050565b5f8281526005602090815260408083206001600160a01b038516845290915281205460ff16610218575f8381526005602090815260408083206001600160a01b03861684529091529020805460ff191660011790556101d03390565b6001600160a01b0316826001600160a01b0316847f2f8788117e7eff1d82e926ec794901d17c78024a50270940304540a733656f0d60405160405180910390a450600161021b565b505f5b92915050565b6001600160a01b03831661024b578060025f82825461024091906105b9565b909155506102bb9050565b6001600160a01b0383165f908152602081905260409020548181101561029d5760405163391434e360e21b81526001600160a01b0385166004820152602481018290526044810183905260640161015c565b6001600160a01b0384165f9081526020819052604090209082900390555b6001600160a01b0382166102d7576002805482900390556102f5565b6001600160a01b0382165f9081526020819052604090208054820190555b816001600160a01b0316836001600160a01b03167fddf252ad1be2c89b69c2b068fc378daa952ba7f163c4a11628f55a4df523b3ef8360405161033a91815260200190565b60405180910390a3505050565b634e487b7160e01b5f52604160045260245ffd5b600181811c9082168061036f57607f821691505b60208210810361038d57634e487b7160e01b5f52602260045260245ffd5b50919050565b601f8211156103da57805f5260205f20601f840160051c810160208510156103b85750805b601f840160051c820191505b818110156103d7575f81556001016103c4565b50505b505050565b81516001600160401b038111156103f8576103f8610347565b61040c81610406845461035b565b84610393565b6020601f82116001811461043e575f83156104275750848201515b5f19600385901b1c1916600184901b1784556103d7565b5f84815260208120601f198516915b8281101561046d578785015182556020948501946001909201910161044d565b508482101561048a57868401515f19600387901b60f8161c191681555b50505050600190811b01905550565b634e487b7160e01b5f52601160045260245ffd5b6001815b60018411156104e8578085048111156104cc576104cc610499565b60018416156104da57908102905b60019390931c9280026104b1565b935093915050565b5f826104fe5750600161021b565b8161050a57505f61021b565b8160018114610520576002811461052a57610546565b600191505061021b565b60ff84111561053b5761053b610499565b50506001821b61021b565b5060208310610133831016604e8410600b8410161715610569575081810a61021b565b6105755f1984846104ad565b805f190482111561058857610588610499565b029392505050565b5f61059b83836104f0565b9392505050565b808202811582820484141761021b5761021b610499565b8082018082111561021b5761021b610499565b610e7a806105d95f395ff3fe608060405234801561000f575f5ffd5b50600436106101d1575f3560e01c80634fcdaba8116100fe578063a217fddf1161009e578063d53913931161006e578063d5391393146103e6578063d547741f146103fa578063d98d23b11461040d578063dd62ed3e14610420575f5ffd5b8063a217fddf146103a5578063a9059cbb146103ac578063b5e352da146103bf578063c3052ffc146103d3575f5ffd5b806379cc6790116100d957806379cc67901461036457806391d148541461037757806395d89b411461038a5780639dc29fac14610392575f5ffd5b80634fcdaba81461031657806369e2f0fb1461032957806370a082311461033c575f5ffd5b8063248a9ca31161017457806336568abe1161014457806336568abe146102ca5780633dd1eb61146102dd57806340c10f19146102f057806342966c6814610303575f5ffd5b8063248a9ca314610272578063282c51f3146102945780632f2ff15d146102a8578063313ce567146102bb575f5ffd5b8063086c0922116101af578063086c092214610227578063095ea7b31461023a57806318160ddd1461024d57806323b872dd1461025f575f5ffd5b806301ffc9a7146101d557806306fdde03146101fd578063080571eb14610212575b5f5ffd5b6101e86101e3366004610c2b565b610458565b60405190151581526020015b60405180910390f35b61020561048e565b6040516101f49190610c59565b610225610220366004610ca9565b61051e565b005b610225610235366004610cd1565b610585565b6101e8610248366004610ca9565b6105aa565b6002545b6040519081526020016101f4565b6101e861026d366004610cea565b6105c1565b610251610280366004610d24565b5f9081526005602052604090206001015490565b6102515f516020610de55f395f51905f5281565b6102256102b6366004610d3b565b6105e4565b604051601281526020016101f4565b6102256102d8366004610d3b565b61060e565b6102256102eb366004610cd1565b610646565b6102256102fe366004610ca9565b610667565b610225610311366004610d24565b610688565b610225610324366004610cd1565b610695565b610225610337366004610cd1565b6106b6565b61025161034a366004610cd1565b6001600160a01b03165f9081526020819052604090205490565b610225610372366004610ca9565b6106d7565b6101e8610385366004610d3b565b6106ec565b610205610716565b6102256103a0366004610ca9565b610725565b6102515f81565b6101e86103ba366004610ca9565b610746565b6102515f516020610e255f395f51905f5281565b6102256103e1366004610cd1565b610753565b6102515f516020610e055f395f51905f5281565b610225610408366004610d3b565b610770565b61022561041b366004610cd1565b610794565b61025161042e366004610d65565b6001600160a01b039182165f90815260016020908152604080832093909416825291909152205490565b5f6001600160e01b03198216637965db0b60e01b148061048857506301ffc9a760e01b6001600160e01b03198316145b92915050565b60606003805461049d90610d8d565b80601f01602080910402602001604051908101604052809291908181526020018280546104c990610d8d565b80156105145780601f106104eb57610100808354040283529160200191610514565b820191905f5260205f20905b8154815290600101906020018083116104f757829003601f168201915b5050505050905090565b5f516020610e255f395f51905f52610535816107b5565b61053f83836107bf565b6040518281526001600160a01b038416905f907fddf252ad1be2c89b69c2b068fc378daa952ba7f163c4a11628f55a4df523b3ef906020015b60405180910390a3505050565b5f61058f816107b5565b6105a65f516020610e255f395f51905f5283610770565b5050565b5f336105b78185856107f8565b5060019392505050565b5f336105ce858285610805565b6105d985858561087a565b506001949350505050565b5f828152600560205260409020600101546105fe816107b5565b61060883836108d7565b50505050565b6001600160a01b03811633146106375760405163334bd91960e11b815260040160405180910390fd5b6106418282610968565b505050565b5f610650816107b5565b6105a65f516020610e055f395f51905f52836105e4565b5f516020610e055f395f51905f5261067e816107b5565b61064183836107bf565b61069233826109d3565b50565b5f61069f816107b5565b6105a65f516020610e255f395f51905f52836105e4565b5f6106c0816107b5565b6105a65f516020610e055f395f51905f5283610770565b6106e2823383610805565b6105a682826109d3565b5f9182526005602090815260408084206001600160a01b0393909316845291905290205460ff1690565b60606004805461049d90610d8d565b5f516020610de55f395f51905f5261073c816107b5565b61064183836109d3565b5f336105b781858561087a565b5f61075d816107b5565b6105a65f516020610de55f395f51905f52835b5f8281526005602052604090206001015461078a816107b5565b6106088383610968565b5f61079e816107b5565b6105a65f516020610de55f395f51905f52836105e4565b6106928133610a07565b6001600160a01b0382166107ed5760405163ec442f0560e01b81525f60048201526024015b60405180910390fd5b6105a65f8383610a40565b6106418383836001610b59565b6001600160a01b038381165f908152600160209081526040808320938616835292905220545f198114610608578181101561086c57604051637dc7a0d960e11b81526001600160a01b038416600482015260248101829052604481018390526064016107e4565b61060884848484035f610b59565b6001600160a01b0383166108a357604051634b637e8f60e11b81525f60048201526024016107e4565b6001600160a01b0382166108cc5760405163ec442f0560e01b81525f60048201526024016107e4565b610641838383610a40565b5f6108e283836106ec565b610961575f8381526005602090815260408083206001600160a01b03861684529091529020805460ff191660011790556109193390565b6001600160a01b0316826001600160a01b0316847f2f8788117e7eff1d82e926ec794901d17c78024a50270940304540a733656f0d60405160405180910390a4506001610488565b505f610488565b5f61097383836106ec565b15610961575f8381526005602090815260408083206001600160a01b0386168085529252808320805460ff1916905551339286917ff6391f5c32d9c69d2a47ea670b442974b53935d1edc7fd64eb21e047a839171b9190a4506001610488565b6001600160a01b0382166109fc57604051634b637e8f60e11b81525f60048201526024016107e4565b6105a6825f83610a40565b610a1182826106ec565b6105a65760405163e2517d3f60e01b81526001600160a01b0382166004820152602481018390526044016107e4565b6001600160a01b038316610a6a578060025f828254610a5f9190610dc5565b90915550610ada9050565b6001600160a01b0383165f9081526020819052604090205481811015610abc5760405163391434e360e21b81526001600160a01b038516600482015260248101829052604481018390526064016107e4565b6001600160a01b0384165f9081526020819052604090209082900390555b6001600160a01b038216610af657600280548290039055610b14565b6001600160a01b0382165f9081526020819052604090208054820190555b816001600160a01b0316836001600160a01b03167fddf252ad1be2c89b69c2b068fc378daa952ba7f163c4a11628f55a4df523b3ef8360405161057891815260200190565b6001600160a01b038416610b825760405163e602df0560e01b81525f60048201526024016107e4565b6001600160a01b038316610bab57604051634a1406b160e11b81525f60048201526024016107e4565b6001600160a01b038085165f908152600160209081526040808320938716835292905220829055801561060857826001600160a01b0316846001600160a01b03167f8c5be1e5ebec7d5bd14f71427d1e84f3dd0314c0f7b2291e5b200ac8c7c3b92584604051610c1d91815260200190565b60405180910390a350505050565b5f60208284031215610c3b575f5ffd5b81356001600160e01b031981168114610c52575f5ffd5b9392505050565b602081525f82518060208401528060208501604085015e5f604082850101526040601f19601f83011684010191505092915050565b80356001600160a01b0381168114610ca4575f5ffd5b919050565b5f5f60408385031215610cba575f5ffd5b610cc383610c8e565b946020939093013593505050565b5f60208284031215610ce1575f5ffd5b610c5282610c8e565b5f5f5f60608486031215610cfc575f5ffd5b610d0584610c8e565b9250610d1360208501610c8e565b929592945050506040919091013590565b5f60208284031215610d34575f5ffd5b5035919050565b5f5f60408385031215610d4c575f5ffd5b82359150610d5c60208401610c8e565b90509250929050565b5f5f60408385031215610d76575f5ffd5b610d7f83610c8e565b9150610d5c60208401610c8e565b600181811c90821680610da157607f821691505b602082108103610dbf57634e487b7160e01b5f52602260045260245ffd5b50919050565b8082018082111561048857634e487b7160e01b5f52601160045260245ffdfe3c11d16cbaffd01df69ce1c404f6340ee057498f5f00246190ea54220576a8489f2df0fed2c77648de5860a4cc508cd0818c85b8b8a1ab4ceeef8d981c8956a644718e3514ccd463314f14773a916bc580c9220f29745390a228f1242d73feb1a264697066735822122030a2337c4462a0ca207462b3420d879986347acfc8f5b4296eef080e16a2605764736f6c634300081c0033",
    "linkReferences": {}
  },
  "methodIdentifiers": {
    "BURNER_ROLE()": "282c51f3",
    "DEFAULT_ADMIN_ROLE()": "a217fddf",
    "GAME_CONTRACT_ROLE()": "b5e352da",
    "MINTER_ROLE()": "d5391393",
    "allowance(address,address)": "dd62ed3e",
    "approve(address,uint256)": "095ea7b3",
    "balanceOf(address)": "70a08231",
    "burn(address,uint256)": "9dc29fac",
    "burn(uint256)": "42966c68",
    "burnFrom(address,uint256)": "79cc6790",
    "decimals()": "313ce567",
    "getRoleAdmin(bytes32)": "248a9ca3",
    "grantBurnerRole(address)": "d98d23b1",
    "grantGameContractRole(address)": "4fcdaba8",
    "grantMinterRole(address)": "3dd1eb61",
    "grantRole(bytes32,address)": "2f2ff15d",
    "hasRole(bytes32,address)": "91d14854",
    "mint(address,uint256)": "40c10f19",
    "mintAndTransfer(address,uint256)": "080571eb",
    "name()": "06fdde03",
    "renounceRole(bytes32,address)": "36568abe",
    "revokeBurnerRole(address)": "c3052ffc",
    "revokeGameContractRole(address)": "086c0922",
    "revokeMinterRole(address)": "69e2f0fb",
    "revokeRole(bytes32,address)": "d547741f",
    "supportsInterface(bytes4)": "01ffc9a7",
    "symbol()": "95d89b41",
    "totalSupply()": "18160ddd",
    "transfer(address,uint256)": "a9059cbb",
    "transferFrom(address,address,uint256)": "23b872dd"
  },
  "id": 37
}