{
  "abi": [
    {
      "type": "constructor",
      "inputs": [
        {
          "name": "_gamaTokenAddress",
          "type": "address",
          "internalType": "address"
        }
      ],
      "stateMutability": "nonpayable"
    },
    {
      "type": "function",
      "name": "BLACK_BET",
      "inputs": [],
      "outputs": [
        {
          "name": "",
          "type": "uint8",
          "internalType": "uint8"
        }
      ],
      "stateMutability": "view"
    },
    {
      "type": "function",
      "name": "BURNER_ROLE",
      "inputs": [],
      "outputs": [
        {
          "name": "",
          "type": "bytes32",
          "internalType": "bytes32"
        }
      ],
      "stateMutability": "view"
    },
    {
      "type": "function",
      "name": "COLUMN_BET_FIRST",
      "inputs": [],
      "outputs": [
        {
          "name": "",
          "type": "uint8",
          "internalType": "uint8"
        }
      ],
      "stateMutability": "view"
    },
    {
      "type": "function",
      "name": "COLUMN_BET_SECOND",
      "inputs": [],
      "outputs": [
        {
          "name": "",
          "type": "uint8",
          "internalType": "uint8"
        }
      ],
      "stateMutability": "view"
    },
    {
      "type": "function",
      "name": "COLUMN_BET_THIRD",
      "inputs": [],
      "outputs": [
        {
          "name": "",
          "type": "uint8",
          "internalType": "uint8"
        }
      ],
      "stateMutability": "view"
    },
    {
      "type": "function",
      "name": "DENOMINATOR",
      "inputs": [],
      "outputs": [
        {
          "name": "",
          "type": "uint256",
          "internalType": "uint256"
        }
      ],
      "stateMutability": "view"
    },
    {
      "type": "function",
      "name": "DOZEN_BET_FIRST",
      "inputs": [],
      "outputs": [
        {
          "name": "",
          "type": "uint8",
          "internalType": "uint8"
        }
      ],
      "stateMutability": "view"
    },
    {
      "type": "function",
      "name": "DOZEN_BET_SECOND",
      "inputs": [],
      "outputs": [
        {
          "name": "",
          "type": "uint8",
          "internalType": "uint8"
        }
      ],
      "stateMutability": "view"
    },
    {
      "type": "function",
      "name": "DOZEN_BET_THIRD",
      "inputs": [],
      "outputs": [
        {
          "name": "",
          "type": "uint8",
          "internalType": "uint8"
        }
      ],
      "stateMutability": "view"
    },
    {
      "type": "function",
      "name": "EVEN_BET",
      "inputs": [],
      "outputs": [
        {
          "name": "",
          "type": "uint8",
          "internalType": "uint8"
        }
      ],
      "stateMutability": "view"
    },
    {
      "type": "function",
      "name": "HIGH_BET",
      "inputs": [],
      "outputs": [
        {
          "name": "",
          "type": "uint8",
          "internalType": "uint8"
        }
      ],
      "stateMutability": "view"
    },
    {
      "type": "function",
      "name": "LOW_BET",
      "inputs": [],
      "outputs": [
        {
          "name": "",
          "type": "uint8",
          "internalType": "uint8"
        }
      ],
      "stateMutability": "view"
    },
    {
      "type": "function",
      "name": "MAX_BET_AMOUNT",
      "inputs": [],
      "outputs": [
        {
          "name": "",
          "type": "uint256",
          "internalType": "uint256"
        }
      ],
      "stateMutability": "view"
    },
    {
      "type": "function",
      "name": "MAX_HISTORY_SIZE",
      "inputs": [],
      "outputs": [
        {
          "name": "",
          "type": "uint256",
          "internalType": "uint256"
        }
      ],
      "stateMutability": "view"
    },
    {
      "type": "function",
      "name": "MAX_NUMBER",
      "inputs": [],
      "outputs": [
        {
          "name": "",
          "type": "uint8",
          "internalType": "uint8"
        }
      ],
      "stateMutability": "view"
    },
    {
      "type": "function",
      "name": "MAX_POSSIBLE_PAYOUT",
      "inputs": [],
      "outputs": [
        {
          "name": "",
          "type": "uint256",
          "internalType": "uint256"
        }
      ],
      "stateMutability": "view"
    },
    {
      "type": "function",
      "name": "MAX_TOTAL_BET_AMOUNT",
      "inputs": [],
      "outputs": [
        {
          "name": "",
          "type": "uint256",
          "internalType": "uint256"
        }
      ],
      "stateMutability": "view"
    },
    {
      "type": "function",
      "name": "MINTER_ROLE",
      "inputs": [],
      "outputs": [
        {
          "name": "",
          "type": "bytes32",
          "internalType": "bytes32"
        }
      ],
      "stateMutability": "view"
    },
    {
      "type": "function",
      "name": "ODD_BET",
      "inputs": [],
      "outputs": [
        {
          "name": "",
          "type": "uint8",
          "internalType": "uint8"
        }
      ],
      "stateMutability": "view"
    },
    {
      "type": "function",
      "name": "RED_BET",
      "inputs": [],
      "outputs": [
        {
          "name": "",
          "type": "uint8",
          "internalType": "uint8"
        }
      ],
      "stateMutability": "view"
    },
    {
      "type": "function",
      "name": "STRAIGHT_BET",
      "inputs": [],
      "outputs": [
        {
          "name": "",
          "type": "uint8",
          "internalType": "uint8"
        }
      ],
      "stateMutability": "view"
    },
    {
      "type": "function",
      "name": "gamaToken",
      "inputs": [],
      "outputs": [
        {
          "name": "",
          "type": "address",
          "internalType": "contract IERC20"
        }
      ],
      "stateMutability": "view"
    },
    {
      "type": "function",
      "name": "getAllBetTypes",
      "inputs": [],
      "outputs": [
        {
          "name": "betTypeIds",
          "type": "uint8[]",
          "internalType": "uint8[]"
        },
        {
          "name": "names",
          "type": "string[]",
          "internalType": "string[]"
        },
        {
          "name": "requiresNumbers",
          "type": "bool[]",
          "internalType": "bool[]"
        },
        {
          "name": "payoutMultipliers",
          "type": "uint256[]",
          "internalType": "uint256[]"
        }
      ],
      "stateMutability": "pure"
    },
    {
      "type": "function",
      "name": "getBetDetails",
      "inputs": [
        {
          "name": "player",
          "type": "address",
          "internalType": "address"
        },
        {
          "name": "betIndex",
          "type": "uint256",
          "internalType": "uint256"
        }
      ],
      "outputs": [
        {
          "name": "timestamp",
          "type": "uint256",
          "internalType": "uint256"
        },
        {
          "name": "betDetails",
          "type": "tuple[]",
          "internalType": "struct BetDetails[]",
          "components": [
            {
              "name": "betType",
              "type": "uint8",
              "internalType": "enum BetType"
            },
            {
              "name": "numbers",
              "type": "uint8[]",
              "internalType": "uint8[]"
            },
            {
              "name": "amount",
              "type": "uint256",
              "internalType": "uint256"
            },
            {
              "name": "payout",
              "type": "uint256",
              "internalType": "uint256"
            }
          ]
        },
        {
          "name": "resultNumber",
          "type": "uint8",
          "internalType": "uint8"
        },
        {
          "name": "isWin",
          "type": "bool",
          "internalType": "bool"
        }
      ],
      "stateMutability": "view"
    },
    {
      "type": "function",
      "name": "getBetTypeInfo",
      "inputs": [
        {
          "name": "betTypeId",
          "type": "uint8",
          "internalType": "uint8"
        }
      ],
      "outputs": [
        {
          "name": "name",
          "type": "string",
          "internalType": "string"
        },
        {
          "name": "requiresNumber",
          "type": "bool",
          "internalType": "bool"
        },
        {
          "name": "payoutMultiplier",
          "type": "uint256",
          "internalType": "uint256"
        }
      ],
      "stateMutability": "pure"
    },
    {
      "type": "function",
      "name": "getPossibleWinningNumbers",
      "inputs": [
        {
          "name": "betTypeId",
          "type": "uint8",
          "internalType": "uint8"
        }
      ],
      "outputs": [
        {
          "name": "numbers",
          "type": "uint8[]",
          "internalType": "uint8[]"
        }
      ],
      "stateMutability": "pure"
    },
    {
      "type": "function",
      "name": "getUserBetHistory",
      "inputs": [
        {
          "name": "player",
          "type": "address",
          "internalType": "address"
        },
        {
          "name": "offset",
          "type": "uint256",
          "internalType": "uint256"
        },
        {
          "name": "limit",
          "type": "uint256",
          "internalType": "uint256"
        }
      ],
      "outputs": [
        {
          "name": "bets",
          "type": "tuple[]",
          "internalType": "struct Bet[]",
          "components": [
            {
              "name": "timestamp",
              "type": "uint256",
              "internalType": "uint256"
            },
            {
              "name": "bets",
              "type": "tuple[]",
              "internalType": "struct BetDetails[]",
              "components": [
                {
                  "name": "betType",
                  "type": "uint8",
                  "internalType": "enum BetType"
                },
                {
                  "name": "numbers",
                  "type": "uint8[]",
                  "internalType": "uint8[]"
                },
                {
                  "name": "amount",
                  "type": "uint256",
                  "internalType": "uint256"
                },
                {
                  "name": "payout",
                  "type": "uint256",
                  "internalType": "uint256"
                }
              ]
            },
            {
              "name": "winningNumber",
              "type": "uint8",
              "internalType": "uint8"
            }
          ]
        },
        {
          "name": "total",
          "type": "uint256",
          "internalType": "uint256"
        }
      ],
      "stateMutability": "view"
    },
    {
      "type": "function",
      "name": "getValidBetNumbers",
      "inputs": [
        {
          "name": "betType",
          "type": "uint8",
          "internalType": "enum BetType"
        },
        {
          "name": "start",
          "type": "uint8",
          "internalType": "uint8"
        }
      ],
      "outputs": [
        {
          "name": "",
          "type": "uint8[]",
          "internalType": "uint8[]"
        }
      ],
      "stateMutability": "pure"
    },
    {
      "type": "function",
      "name": "placeBet",
      "inputs": [
        {
          "name": "betRequests",
          "type": "tuple[]",
          "internalType": "struct BetRequest[]",
          "components": [
            {
              "name": "betTypeId",
              "type": "uint8",
              "internalType": "uint8"
            },
            {
              "name": "number",
              "type": "uint8",
              "internalType": "uint8"
            },
            {
              "name": "amount",
              "type": "uint256",
              "internalType": "uint256"
            }
          ]
        }
      ],
      "outputs": [],
      "stateMutability": "nonpayable"
    },
    {
      "type": "function",
      "name": "totalGamesPlayed",
      "inputs": [],
      "outputs": [
        {
          "name": "",
          "type": "uint256",
          "internalType": "uint256"
        }
      ],
      "stateMutability": "view"
    },
    {
      "type": "function",
      "name": "totalPayoutAmount",
      "inputs": [],
      "outputs": [
        {
          "name": "",
          "type": "uint256",
          "internalType": "uint256"
        }
      ],
      "stateMutability": "view"
    },
    {
      "type": "function",
      "name": "totalWageredAmount",
      "inputs": [],
      "outputs": [
        {
          "name": "",
          "type": "uint256",
          "internalType": "uint256"
        }
      ],
      "stateMutability": "view"
    },
    {
      "type": "function",
      "name": "userData",
      "inputs": [
        {
          "name": "",
          "type": "address",
          "internalType": "address"
        }
      ],
      "outputs": [
        {
          "name": "maxHistorySize",
          "type": "uint256",
          "internalType": "uint256"
        }
      ],
      "stateMutability": "view"
    },
    {
      "type": "error",
      "name": "BurnFailed",
      "inputs": [
        {
          "name": "account",
          "type": "address",
          "internalType": "address"
        },
        {
          "name": "amount",
          "type": "uint256",
          "internalType": "uint256"
        }
      ]
    },
    {
      "type": "error",
      "name": "InsufficientAllowance",
      "inputs": [
        {
          "name": "required",
          "type": "uint256",
          "internalType": "uint256"
        },
        {
          "name": "allowed",
          "type": "uint256",
          "internalType": "uint256"
        }
      ]
    },
    {
      "type": "error",
      "name": "InsufficientUserBalance",
      "inputs": [
        {
          "name": "required",
          "type": "uint256",
          "internalType": "uint256"
        },
        {
          "name": "available",
          "type": "uint256",
          "internalType": "uint256"
        }
      ]
    },
    {
      "type": "error",
      "name": "InvalidBetParameters",
      "inputs": [
        {
          "name": "reason",
          "type": "string",
          "internalType": "string"
        }
      ]
    },
    {
      "type": "error",
      "name": "InvalidBetType",
      "inputs": [
        {
          "name": "betType",
          "type": "uint256",
          "internalType": "uint256"
        }
      ]
    },
    {
      "type": "error",
      "name": "MaxPayoutExceeded",
      "inputs": [
        {
          "name": "potentialPayout",
          "type": "uint256",
          "internalType": "uint256"
        },
        {
          "name": "maxAllowed",
          "type": "uint256",
          "internalType": "uint256"
        }
      ]
    },
    {
      "type": "error",
      "name": "MintFailed",
      "inputs": [
        {
          "name": "account",
          "type": "address",
          "internalType": "address"
        },
        {
          "name": "amount",
          "type": "uint256",
          "internalType": "uint256"
        }
      ]
    },
    {
      "type": "error",
      "name": "MissingContractRole",
      "inputs": [
        {
          "name": "role",
          "type": "bytes32",
          "internalType": "bytes32"
        }
      ]
    },
    {
      "type": "error",
      "name": "ReentrancyGuardReentrantCall",
      "inputs": []
    },
    {
      "type": "error",
      "name": "TransferFailed",
      "inputs": [
        {
          "name": "from",
          "type": "address",
          "internalType": "address"
        },
        {
          "name": "to",
          "type": "address",
          "internalType": "address"
        },
        {
          "name": "amount",
          "type": "uint256",
          "internalType": "uint256"
        }
      ]
    }
  ],
  "bytecode": {
    "object": "0x6080604052348015600e575f5ffd5b50604051613512380380613512833981016040819052602b9160ac565b60015f556001600160a01b03811660885760405162461bcd60e51b815260206004820152601c60248201527f546f6b656e20616464726573732063616e6e6f74206265207a65726f00000000604482015260640160405180910390fd5b600180546001600160a01b0319166001600160a01b039290921691909117905560d7565b5f6020828403121560bb575f5ffd5b81516001600160a01b038116811460d0575f5ffd5b9392505050565b61342e806100e45f395ff3fe608060405234801561000f575f5ffd5b50600436106101f2575f3560e01c806394bae38511610114578063d5391393116100a9578063e3286e5511610079578063e3286e55146103ef578063e60271cf14610410578063e7efcfc214610418578063fa198c4f14610421578063fea9b57214610443575f5ffd5b8063d53913931461038d578063d56ec8c9146103b4578063d6b6cd59146103df578063ddebc952146103e7575f5ffd5b8063b8a5e438116100e4578063b8a5e43814610346578063c10662511461034e578063c1a5fe5114610356578063c89109131461036b575f5ffd5b806394bae3851461031b5780639793e1d614610323578063a398222714610336578063b34daef41461033e575f5ffd5b80634689b4411161018a578063790231701161015a57806379023170146102ea5780637d3d31ad14610302578063918f86741461030a57806394b9b50714610313575f5ffd5b80634689b441146102a65780635a0db4d2146102b85780635bdb2e1b146102d85780635c492129146102e1575f5ffd5b80632ff21494116101c55780632ff2149414610263578063309167f51461028657806336b39a6014610297578063432aeb8f1461029f575f5ffd5b806319469f1b146101f65780632257b05714610215578063282c51f31461021d5780632d2cd03414610252575b5f5ffd5b6101fe600881565b60405160ff90911681526020015b60405180910390f35b6101fe600581565b6102447f3c11d16cbaffd01df69ce1c404f6340ee057498f5f00246190ea54220576a84881565b60405190815260200161020c565b6102446969e10de76676d080000081565b610276610271366004612d45565b61044b565b60405161020c9493929190612d81565b61024469152d02c7e14af680000081565b6101fe600181565b6101fe5f81565b6102446a0e79c4e6a3023e8180000081565b6102cb6102c6366004612e83565b610682565b60405161020c9190612ed9565b61024460055481565b61024460035481565b6102f2610b8c565b60405161020c9493929190612f7b565b6101fe600c81565b61024461271081565b6101fe600b81565b6101fe600a81565b6102cb610331366004613018565b610cf1565b6101fe600781565b6101fe600281565b6101fe600481565b610244600a81565b61036961036436600461304e565b610e66565b005b6102446103793660046130bf565b60026020525f908152604090206001015481565b6102447f9f2df0fed2c77648de5860a4cc508cd0818c85b8b8a1ab4ceeef8d981c8956a681565b6001546103c7906001600160a01b031681565b6040516001600160a01b03909116815260200161020c565b6101fe600381565b6101fe600681565b6104026103fd3660046130d8565b610f68565b60405161020c929190613108565b6101fe600981565b61024460045481565b61043461042f366004612e83565b61125d565b60405161020c9392919061325f565b6101fe602481565b6001600160a01b0382165f908152600260205260408120546060908290819085106104b15760405162461bcd60e51b8152602060048201526011602482015270092dcecc2d8d2c840c4cae840d2dcc8caf607b1b60448201526064015b60405180910390fd5b6001600160a01b0386165f9081526002602052604081208054879081106104da576104da613283565b905f5260205f2090600302016040518060600160405290815f820154815260200160018201805480602002602001604051908101604052809291908181526020015f905b82821015610603575f848152602090206040805160808101909152600484029091018054829060ff16600881111561055857610558612d6d565b600881111561056957610569612d6d565b8152602001600182018054806020026020016040519081016040528092919081815260200182805480156105d757602002820191905f5260205f20905f905b825461010083900a900460ff168152602060019283018181049485019490930390920291018084116105a85790505b50505050508152602001600282015481526020016003820154815250508152602001906001019061051e565b505050908252506002919091015460ff1660209091015290505f805b826020015151811015610663578260200151818151811061064257610642613283565b6020026020010151606001518261065991906132ab565b915060010161061f565b5081516020830151604090930151909992985096501515945092505050565b606060ff82166106fc576040805160258082526104c0820190925290602082016104a0803683370190505090505f5b60248160ff16116106f65780828260ff16815181106106d2576106d2613283565b60ff90921660209283029190910190910152806106ee816132d2565b9150506106b1565b50919050565b60061960ff8316016108215760408051601280825261026082019092529060208201610240803683370190505060408051610240810182526001815260036020808301919091526005928201929092526007606082015260096080820152600c60a0820152600e60c0820152601060e082015260126101008201526013610120820152601561014082015260176101608201526019610180820152601b6101a0820152601e6101c08201526101e0810191909152602261020082015260246102208201529091505f5b60128160ff16101561081a57818160ff16601281106107e6576107e6613283565b6020020151838260ff168151811061080057610800613283565b60ff909216602092830291909101909101526001016107c5565b5050919050565b60071960ff83160161093a576040805160128082526102608201909252906020820161024080368337019050506040805161024081018252600281526004602082015260069181019190915260086060820152600a6080820152600b60a0820152600d60c0820152600f60e08201526011610100820152601461012082015260166101408201526018610160820152601a610180820152601c6101a0820152601d6101c0820152601f6101e0820152602161020082015260236102208201529091505f5b60128160ff16101561081a57818160ff166012811061090657610906613283565b6020020151838260ff168151811061092057610920613283565b60ff909216602092830291909101909101526001016108e5565b60081960ff8316016109bc5760408051601280825261026082019092529060208201610240803683370190505090505f5b60128160ff1610156106f6576109828160016132f0565b61098d906002613309565b828260ff16815181106109a2576109a2613283565b60ff9092166020928302919091019091015260010161096b565b60091960ff831601610a3e5760408051601280825261026082019092529060208201610240803683370190505090505f5b60128160ff1610156106f657610a04816002613309565b610a0f9060016132f0565b828260ff1681518110610a2457610a24613283565b60ff909216602092830291909101909101526001016109ed565b600a1960ff831601610ab55760408051601280825261026082019092529060208201610240803683370190505090505f5b60128160ff1610156106f657610a868160016132f0565b828260ff1681518110610a9b57610a9b613283565b60ff90921660209283029190910190910152600101610a6f565b600b1960ff831601610b2c5760408051601280825261026082019092529060208201610240803683370190505090505f5b60128160ff1610156106f657610afd8160136132f0565b828260ff1681518110610b1257610b12613283565b60ff90921660209283029190910190910152600101610ae6565b6040516334460f4160e01b815260206004820152602960248201527f496e76616c696420626574207479706520494420666f72206e756d626572206760448201526832b732b930ba34b7b760b91b60648201526084016104a8565b919050565b60408051600d8082526101c0820190925260609182918291829190602082016101a0803683370190505060408051600d8082526101c08201909252919550816020015b6060815260200190600190039081610bcf57505060408051600d8082526101c08201909252919450602082016101a080368337505060408051600d8082526101c082019092529294509050602082016101a0803683370190505090505f5b600d8160ff161015610cea575f5f5f610c458461125d565b92509250925083888560ff1681518110610c6157610c61613283565b602002602001019060ff16908160ff168152505082878560ff1681518110610c8b57610c8b613283565b602002602001018190525081868560ff1681518110610cac57610cac613283565b60200260200101901515908115158152505080858560ff1681518110610cd457610cd4613283565b6020908102919091010152505050600101610c2d565b5090919293565b60606002836008811115610d0757610d07612d6d565b03610d82578160ff1660011480610d2157508160ff166002145b80610d2f57508160ff166003145b610d725760405162461bcd60e51b8152602060048201526014602482015273125b9d985b1a590818dbdb1d5b5b881cdd185c9d60621b60448201526064016104a8565b610d7b826115f9565b9050610e60565b6001836008811115610d9657610d96612d6d565b03610e09578160ff1660011480610db057508160ff16600d145b80610dbe57508160ff166019145b610e005760405162461bcd60e51b8152602060048201526013602482015272125b9d985b1a5908191bde995b881cdd185c9d606a1b60448201526064016104a8565b610d7b8261167a565b60405162461bcd60e51b815260206004820152602660248201527f496e76616c696420626574207479706520666f72206e756d6265722067656e656044820152653930ba34b7b760d11b60648201526084016104a8565b92915050565b610e6e6116e9565b5f819003610eb2576040516334460f4160e01b815260206004820152601060248201526f139bc818995d1cc81c1c9bdd9a59195960821b60448201526064016104a8565b600f811115610ef4576040516334460f4160e01b815260206004820152600d60248201526c546f6f206d616e79206265747360981b60448201526064016104a8565b335f9081526002602052604081209080610f0e8585611711565b9092509050610f1d33836118fd565b5f610f2a86868686611ca7565b600380549192505f610f3b83613325565b91905055508060045f828254610f5191906132ab565b909155505060015f5550610f6492505050565b5050565b6001600160a01b0383165f9081526002602090815260408083208054825181850281018501909352808352606094938493929190849084015b828210156110fb578382905f5260205f2090600302016040518060600160405290815f820154815260200160018201805480602002602001604051908101604052809291908181526020015f905b828210156110d4575f848152602090206040805160808101909152600484029091018054829060ff16600881111561102957611029612d6d565b600881111561103a5761103a612d6d565b8152602001600182018054806020026020016040519081016040528092919081815260200182805480156110a857602002820191905f5260205f20905f905b825461010083900a900460ff168152602060019283018181049485019490930390920291018084116110795790505b505050505081526020016002820154815260200160038201548152505081526020019060010190610fef565b505050908252506002919091015460ff166020918201529082526001929092019101610fa1565b50508251929350505080861061116457604080515f8082526020820190925290611158565b61114560405180606001604052805f8152602001606081526020015f60ff1681525090565b8152602001906001900390816111205790505b50935091506112559050565b5f61116f86886132ab565b90508181111561117c5750805b5f611187888361333d565b90508067ffffffffffffffff8111156111a2576111a26132be565b6040519080825280602002602001820160405280156111f857816020015b6111e560405180606001604052805f8152602001606081526020015f60ff1681525090565b8152602001906001900390816111c05790505b5095505f5b8181101561124d5784611210828b6132ab565b8151811061122057611220613283565b602002602001015187828151811061123a5761123a613283565b60209081029190910101526001016111fd565b509193505050505b935093915050565b60605f8060ff84166112a35760016112786127106023613350565b60408051808201909152600881526714dd1c985a59da1d60c21b6020820152945090925090506115f2565b5f1960ff8516016112f1575f6112bc6127106002613350565b604080518082019091526012815271466972737420446f7a656e2028312d31322960701b6020820152945090925090506115f2565b60011960ff851601611342575f61130b6127106002613350565b6040805180820190915260148152735365636f6e6420446f7a656e202831332d32342960601b6020820152945090925090506115f2565b60021960ff851601611392575f61135c6127106002613350565b604080518082019091526013815272546869726420446f7a656e202832352d33362960681b6020820152945090925090506115f2565b60031960ff8516016113db575f6113ac6127106002613350565b60408051808201909152600c81526b2334b939ba1021b7b63ab6b760a11b6020820152945090925090506115f2565b60041960ff851601611425575f6113f56127106002613350565b60408051808201909152600d81526c29b2b1b7b7321021b7b63ab6b760991b6020820152945090925090506115f2565b60051960ff85160161146e575f61143f6127106002613350565b60408051808201909152600c81526b2a3434b9321021b7b63ab6b760a11b6020820152945090925090506115f2565b60061960ff8516016114a157505060408051808201909152600381526214995960ea1b602082015290505f6127106115f2565b60071960ff8516016114d6575050604080518082019091526005815264426c61636b60d81b602082015290505f6127106115f2565b60081960ff85160161150a57505060408051808201909152600481526322bb32b760e11b602082015290505f6127106115f2565b60091960ff85160161153d57505060408051808201909152600381526213d91960ea1b602082015290505f6127106115f2565b600a1960ff85160161157757505060408051808201909152600a8152694c6f772028312d31382960b01b602082015290505f6127106115f2565b600b1960ff8516016115b357505060408051808201909152600c81526b48696768202831392d33362960a01b602082015290505f6127106115f2565b6040516334460f4160e01b8152602060048201526013602482015272125b9d985b1a590818995d081d1e5c19481251606a1b60448201526064016104a8565b9193909250565b60408051600c8082526101a082019092526060915f919060208201610180803683370190505090505f5b600c8160ff1610156116735761163a816003613309565b61164490856132f0565b828260ff168151811061165957611659613283565b60ff90921660209283029190910190910152600101611623565b5092915050565b60408051600c8082526101a082019092526060915f919060208201610180803683370190505090505f5b600c8160ff161015611673576116ba81856132f0565b828260ff16815181106116cf576116cf613283565b60ff909216602092830291909101909101526001016116a4565b60025f540361170b57604051633ee5aeb560e01b815260040160405180910390fd5b60025f55565b5f80805b838110156118f55784848281811061172f5761172f613283565b905060600201604001355f0361177d576040516334460f4160e01b8152602060048201526012602482015271125b9d985b1a590818995d08185b5bdd5b9d60721b60448201526064016104a8565b69152d02c7e14af680000085858381811061179a5761179a613283565b9050606002016040013511156117f3576040516334460f4160e01b815260206004820152601b60248201527f53696e676c652062657420616d6f756e7420746f6f206c61726765000000000060448201526064016104a8565b84848281811061180557611805613283565b905060600201604001358361181a91906132ab565b92505f61183d86868481811061183257611832613283565b9050606002016122dc565b5090505f61184a8261257a565b90505f6127108289898781811061186357611863613283565b905060600201604001356118779190613350565b611881919061337b565b905061188d81866132ab565b94506969e10de76676d08000008611156118ea576040516334460f4160e01b815260206004820152601a60248201527f546f74616c2062657420616d6f756e7420746f6f206c6172676500000000000060448201526064016104a8565b505050600101611715565b509250929050565b6001546040516370a0823160e01b81526001600160a01b038481166004830152839216906370a0823190602401602060405180830381865afa158015611945573d5f5f3e3d5ffd5b505050506040513d601f19601f82011682018060405250810190611969919061338e565b10156119fd576001546040516370a0823160e01b81526001600160a01b038481166004830152839216906370a0823190602401602060405180830381865afa1580156119b7573d5f5f3e3d5ffd5b505050506040513d601f19601f820116820180604052508101906119db919061338e565b6040516302fa826960e51b8152600481019290925260248201526044016104a8565b600154604051636eb1769f60e11b81526001600160a01b0384811660048301523060248301528392169063dd62ed3e90604401602060405180830381865afa158015611a4b573d5f5f3e3d5ffd5b505050506040513d601f19601f82011682018060405250810190611a6f919061338e565b1015611b0957600154604051636eb1769f60e11b81526001600160a01b0384811660048301523060248301528392169063dd62ed3e90604401602060405180830381865afa158015611ac3573d5f5f3e3d5ffd5b505050506040513d601f19601f82011682018060405250810190611ae7919061338e565b60405163054365bb60e31b8152600481019290925260248201526044016104a8565b600154604051632474521560e21b81527f3c11d16cbaffd01df69ce1c404f6340ee057498f5f00246190ea54220576a84860048201523060248201526001600160a01b03909116906391d1485490604401602060405180830381865afa158015611b75573d5f5f3e3d5ffd5b505050506040513d601f19601f82011682018060405250810190611b9991906133a5565b611bd8576040516359f75fb760e11b81527f3c11d16cbaffd01df69ce1c404f6340ee057498f5f00246190ea54220576a84860048201526024016104a8565b600154604051632474521560e21b81527f9f2df0fed2c77648de5860a4cc508cd0818c85b8b8a1ab4ceeef8d981c8956a660048201523060248201526001600160a01b03909116906391d1485490604401602060405180830381865afa158015611c44573d5f5f3e3d5ffd5b505050506040513d601f19601f82011682018060405250810190611c6891906133a5565b610f64576040516359f75fb760e11b81527f9f2df0fed2c77648de5860a4cc508cd0818c85b8b8a1ab4ceeef8d981c8956a660048201526024016104a8565b600154604051632770a7eb60e21b8152336004820152602481018390525f916001600160a01b031690639dc29fac906044015f604051808303815f87803b158015611cf0575f5ffd5b505af1925050508015611d01575060015b611d275760405163016f84a160e01b8152336004820152602481018390526044016104a8565b8160055f828254611d3891906132ab565b909155505f9050611d4761265c565b90505f8567ffffffffffffffff811115611d6357611d636132be565b604051908082528060200260200182016040528015611dbd57816020015b611daa6040805160808101909152805f8152602001606081526020015f81526020015f81525090565b815260200190600190039081611d815790505b5090505f5b86811015611edb575f5f611de18a8a8581811061183257611832613283565b915091505f611e0d82848d8d88818110611dfd57611dfd613283565b90506060020160400135896126d4565b905086611e1a82826132ab565b1015611e5a5760405162461bcd60e51b815260206004820152600f60248201526e5061796f7574206f766572666c6f7760881b60448201526064016104a8565b611e6481886132ab565b96506040518060800160405280846008811115611e8357611e83612d6d565b81526020018381526020018c8c87818110611ea057611ea0613283565b90506060020160400135815260200182815250858581518110611ec557611ec5613283565b6020908102919091010152505050600101611dc2565b508454600a1161210b575f5b8554611ef59060019061333d565b811015611f825785611f088260016132ab565b81548110611f1857611f18613283565b905f5260205f209060030201865f018281548110611f3857611f38613283565b5f9182526020909120825460039092020190815560018083018054611f609284019190612b17565b506002918201549101805460ff191660ff909216919091179055600101611ee7565b50845442908690611f959060019061333d565b81548110611fa557611fa5613283565b5f918252602090912060039091020155845482908690611fc79060019061333d565b81548110611fd757611fd7613283565b5f9182526020909120600390910201600201805460ff191660ff929092169190911790558454859061200b9060019061333d565b8154811061201b5761201b613283565b905f5260205f2090600302016001015f6120359190612bbd565b5f5b815181101561210557855486906120509060019061333d565b8154811061206057612060613283565b905f5260205f20906003020160010182828151811061208157612081613283565b6020908102919091018101518254600181810185555f9485529290932081516004909402018054919390929091839160ff19909116908360088111156120c9576120c9612d6d565b021790555060208281015180516120e69260018501920190612bde565b5060408201516002820155606090910151600390910155600101612037565b5061224b565b845460019081018087555f878152916121239161333d565b905042865f01828154811061213a5761213a613283565b5f9182526020909120600390910201558554839087908390811061216057612160613283565b5f9182526020822060039190910201600201805460ff191660ff93909316929092179091555b825181101561224857865f0182815481106121a3576121a3613283565b905f5260205f2090600302016001018382815181106121c4576121c4613283565b6020908102919091018101518254600181810185555f9485529290932081516004909402018054919390929091839160ff199091169083600881111561220c5761220c612d6d565b021790555060208281015180516122299260018501920190612bde565b5060408201516002820155606090910151600390910155600101612186565b50505b82156122d1576001546040516340c10f1960e01b8152336004820152602481018590526001600160a01b03909116906340c10f19906044015f604051808303815f87803b15801561229a575f5ffd5b505af19250505080156122ab575060015b6122d157604051635c0b206f60e01b8152336004820152602481018490526044016104a8565b50505b949350505050565b5f6060816122ed6020850185612e83565b60ff16036123b65760246123076040850160208601612e83565b60ff1611156123585760405162461bcd60e51b815260206004820152601f60248201527f496e76616c6964206e756d62657220666f72207374726169676874206265740060448201526064016104a8565b60408051600180825281830190925290602080830190803683370190505090506123886040840160208501612e83565b815f8151811061239a5761239a613283565b602002602001019060ff16908160ff16815250505f9150915091565b60016123c56020850185612e83565b60ff16036123e25760016123d9600161167a565b91509150915091565b60026123f16020850185612e83565b60ff16036124055760016123d9600d61167a565b60036124146020850185612e83565b60ff16036124285760016123d9601961167a565b60046124376020850185612e83565b60ff160361244b5760026123d960016115f9565b600561245a6020850185612e83565b60ff160361246e5760026123d960026115f9565b600661247d6020850185612e83565b60ff16036124915760026123d960036115f9565b60076124a06020850185612e83565b60ff16036124df5760035f5b6040519080825280602002602001820160405280156124d5578160200160208202803683370190505b5091509150915091565b60086124ee6020850185612e83565b60ff16036124fe5760045f6124ac565b600961250d6020850185612e83565b60ff160361251d5760055f6124ac565b600a61252c6020850185612e83565b60ff160361253c5760065f6124ac565b600b61254b6020850185612e83565b60ff160361255b5760075f6124ac565b600c61256a6020850185612e83565b60ff16036115b35760085f6124ac565b5f8082600881111561258e5761258e612d6d565b036125a057610e606127106023613350565b60018260088111156125b4576125b4612d6d565b036125c657610e606127106002613350565b60028260088111156125da576125da612d6d565b036125ec57610e606127106002613350565b600382600881111561260057612600612d6d565b101580156126205750600882600881111561261d5761261d612d6d565b11155b1561262e5750612710919050565b81600881111561264057612640612d6d565b604051636a35924760e01b81526004016104a891815260200190565b5f612669602460016132f0565b60ff164244336003546040516020016126ad9493929190938452602084019290925260601b6bffffffffffffffffffffffff19166040830152605482015260740190565b604051602081830303815290604052805190602001205f1c6126cf91906133c4565b905090565b5f825f036126e357505f6122d4565b69152d02c7e14af680000083111561273e576040516334460f4160e01b815260206004820152601a60248201527f42657420616d6f756e742065786365656473206d6178696d756d00000000000060448201526064016104a8565b612749858584612819565b1561280f575f6127588561257a565b9050805f0361279e5760405162461bcd60e51b815260206004820152601260248201527124b73b30b634b21036bab63a34b83634b2b960711b60448201526064016104a8565b5f6127106127ac8387613350565b6127b6919061337b565b90505f6127c386836132ab565b90506a0e79c4e6a3023e81800000811115612805576040516310f2885f60e11b8152600481018290526a0e79c4e6a3023e8180000060248201526044016104a8565b92506122d4915050565b505f949350505050565b5f602460ff8316111561282d57505f612a0e565b8160ff165f03612886575f83600881111561284a5761284a612d6d565b148015612858575083516001145b801561287f5750835f8151811061287157612871613283565b602002602001015160ff165f145b9050612a0e565b600383600881111561289a5761289a612d6d565b036128a85761287f82612a15565b60048360088111156128bc576128bc612d6d565b036128de576128ca82612a15565b15801561287f57505060ff81161515612a0e565b60058360088111156128f2576128f2612d6d565b03612919576129026002836133d7565b60ff1615801561287f57505060ff81161515612a0e565b600683600881111561292d5761292d612d6d565b0361294a5761293d6002836133d7565b60ff166001149050612a0e565b600783600881111561295e5761295e612d6d565b036129805760018260ff161015801561287f575050601260ff82161115612a0e565b600883600881111561299457612994612d6d565b036129b65760138260ff161015801561287f575050602460ff82161115612a0e565b5f5b84518160ff161015612a09578260ff16858260ff16815181106129dd576129dd613283565b602002602001015160ff16036129f7576001915050612a0e565b80612a01816132d2565b9150506129b8565b505f90505b9392505050565b5f8160ff165f03612a2757505f919050565b60408051610240810182526001815260036020808301919091526005928201929092526007606082015260096080820152600c60a0820152600e60c0820152601060e082015260126101008201526013610120820152601561014082015260176101608201526019610180820152601b6101a0820152601e6101c08201526101e0810191909152602261020082015260246102208201525f5b60128160ff161015612b0e578360ff16828260ff1660128110612ae557612ae5613283565b602002015160ff1603612afc575060019392505050565b80612b06816132d2565b915050612ac0565b505f9392505050565b828054828255905f5260205f20906004028101928215612bad575f5260205f209160040282015b82811115612bad57825482548491849160ff90911690829060ff19166001836008811115612b6e57612b6e612d6d565b021790555060018281018054612b879284019190612c7b565b506002820154816002015560038201548160030155505091600401919060040190612b3e565b50612bb9929150612cc5565b5090565b5080545f8255600402905f5260205f2090810190612bdb9190612cc5565b50565b828054828255905f5260205f2090601f01602090048101928215612c6f579160200282015f5b83821115612c4157835183826101000a81548160ff021916908360ff16021790555092602001926001016020815f01049283019260010302612c04565b8015612c6d5782816101000a81549060ff02191690556001016020815f01049283019260010302612c41565b505b50612bb9929150612cf9565b828054828255905f5260205f2090601f01602090048101928215612c6f575f5260205f2091601f016020900482015b82811115612c6f578254825591600101919060010190612caa565b80821115612bb957805460ff191681555f612ce36001830182612d0d565b505f600282018190556003820155600401612cc5565b5b80821115612bb9575f8155600101612cfa565b5080545f8255601f0160209004905f5260205f2090810190612bdb9190612cf9565b80356001600160a01b0381168114610b87575f5ffd5b5f5f60408385031215612d56575f5ffd5b612d5f83612d2f565b946020939093013593505050565b634e487b7160e01b5f52602160045260245ffd5b5f608082018683526080602084015280865180835260a08501915060a08160051b8601019250602088015f5b82811015612e5457609f19878603018452815160808601815160098110612de257634e487b7160e01b5f52602160045260245ffd5b87526020828101516080828a015280519283905201905f9060a08901905b80831015612e265760ff8451168252602082019150602084019350600183019250612e00565b50604084810151908a0152606093840151939098019290925250506020938401939190910190600101612dad565b5050505060ff9490941660408301525090151560609091015292915050565b803560ff81168114610b87575f5ffd5b5f60208284031215612e93575f5ffd5b612a0e82612e73565b5f8151808452602084019350602083015f5b82811015612ecf57815160ff16865260209586019590910190600101612eae565b5093949350505050565b602081525f612a0e6020830184612e9c565b5f81518084528060208401602086015e5f602082860101526020601f19601f83011685010191505092915050565b5f8151808452602084019350602083015f5b82811015612ecf5781511515865260209586019590910190600101612f2b565b5f8151808452602084019350602083015f5b82811015612ecf578151865260209586019590910190600101612f5d565b608081525f612f8d6080830187612e9c565b828103602084015280865180835260208301915060208160051b840101602089015f5b83811015612fe257601f19868403018552612fcc838351612eeb565b6020958601959093509190910190600101612fb0565b50508581036040870152612ff68189612f19565b9350505050828103606084015261300d8185612f4b565b979650505050505050565b5f5f60408385031215613029575f5ffd5b823560098110613037575f5ffd5b915061304560208401612e73565b90509250929050565b5f5f6020838503121561305f575f5ffd5b823567ffffffffffffffff811115613075575f5ffd5b8301601f81018513613085575f5ffd5b803567ffffffffffffffff81111561309b575f5ffd5b8560206060830284010111156130af575f5ffd5b6020919091019590945092505050565b5f602082840312156130cf575f5ffd5b612a0e82612d2f565b5f5f5f606084860312156130ea575f5ffd5b6130f384612d2f565b95602085013595506040909401359392505050565b5f604082016040835280855180835260608501915060608160051b8601019250602087015f5b8281101561324b57605f198786030184528151606086018151875260208201516060602089015281815180845260808a01915060808160051b8b010193506020830192505f5b8181101561321b57607f198b86030183528351608086018151600981106131a957634e487b7160e01b5f52602160045260245ffd5b87526020828101516080828a015280519283905201905f9060a08901905b808310156131ed5760ff84511682526020820191506020840193506001830192506131c7565b50604084810151908a0152606093840151939098019290925250506020938401939290920191600101613174565b5050505060408201519150613235604088018360ff169052565b955050602093840193919091019060010161312e565b505050506020929092019290925292915050565b606081525f6132716060830186612eeb565b93151560208301525060400152919050565b634e487b7160e01b5f52603260045260245ffd5b634e487b7160e01b5f52601160045260245ffd5b80820180821115610e6057610e60613297565b634e487b7160e01b5f52604160045260245ffd5b5f60ff821660ff81036132e7576132e7613297565b60010192915050565b60ff8181168382160190811115610e6057610e60613297565b60ff818116838216029081169081811461167357611673613297565b5f6001820161333657613336613297565b5060010190565b81810381811115610e6057610e60613297565b8082028115828204841417610e6057610e60613297565b634e487b7160e01b5f52601260045260245ffd5b5f8261338957613389613367565b500490565b5f6020828403121561339e575f5ffd5b5051919050565b5f602082840312156133b5575f5ffd5b81518015158114612a0e575f5ffd5b5f826133d2576133d2613367565b500690565b5f60ff8316806133e9576133e9613367565b8060ff8416069150509291505056fea2646970667358221220839c085851f33d138cd0c296c662c4638689321d79cddae6f56af2c9eabe859764736f6c634300081c0033",
    "linkReferences": {}
  },
  "methodIdentifiers": {
    "BLACK_BET()": "19469f1b",
    "BURNER_ROLE()": "282c51f3",
    "COLUMN_BET_FIRST()": "b8a5e438",
    "COLUMN_BET_SECOND()": "2257b057",
    "COLUMN_BET_THIRD()": "ddebc952",
    "DENOMINATOR()": "918f8674",
    "DOZEN_BET_FIRST()": "36b39a60",
    "DOZEN_BET_SECOND()": "b34daef4",
    "DOZEN_BET_THIRD()": "d6b6cd59",
    "EVEN_BET()": "e60271cf",
    "HIGH_BET()": "7d3d31ad",
    "LOW_BET()": "94b9b507",
    "MAX_BET_AMOUNT()": "309167f5",
    "MAX_HISTORY_SIZE()": "c1066251",
    "MAX_NUMBER()": "fea9b572",
    "MAX_POSSIBLE_PAYOUT()": "4689b441",
    "MAX_TOTAL_BET_AMOUNT()": "2d2cd034",
    "MINTER_ROLE()": "d5391393",
    "ODD_BET()": "94bae385",
    "RED_BET()": "a3982227",
    "STRAIGHT_BET()": "432aeb8f",
    "gamaToken()": "d56ec8c9",
    "getAllBetTypes()": "79023170",
    "getBetDetails(address,uint256)": "2ff21494",
    "getBetTypeInfo(uint8)": "fa198c4f",
    "getPossibleWinningNumbers(uint8)": "5a0db4d2",
    "getUserBetHistory(address,uint256,uint256)": "e3286e55",
    "getValidBetNumbers(uint8,uint8)": "9793e1d6",
    "placeBet((uint8,uint8,uint256)[])": "c1a5fe51",
    "totalGamesPlayed()": "5c492129",
    "totalPayoutAmount()": "e7efcfc2",
    "totalWageredAmount()": "5bdb2e1b",
    "userData(address)": "c8910913"
  },
  "id": 39
}