{
  "abi": [
    {
      "type": "constructor",
      "inputs": [
        {
          "name": "_gamaTokenAddress",
          "type": "address",
          "internalType": "address"
        },
        {
          "name": "vrfCoordinator",
          "type": "address",
          "internalType": "address"
        },
        {
          "name": "subscriptionId",
          "type": "uint64",
          "internalType": "uint64"
        },
        {
          "name": "keyHash",
          "type": "bytes32",
          "internalType": "bytes32"
        },
        {
          "name": "_callbackGasLimit",
          "type": "uint32",
          "internalType": "uint32"
        },
        {
          "name": "_requestConfirmations",
          "type": "uint16",
          "internalType": "uint16"
        },
        {
          "name": "_numWords",
          "type": "uint8",
          "internalType": "uint8"
        }
      ],
      "stateMutability": "nonpayable"
    },
    {
      "type": "function",
      "name": "BLACK_BET",
      "inputs": [],
      "outputs": [
        {
          "name": "",
          "type": "uint8",
          "internalType": "uint8"
        }
      ],
      "stateMutability": "view"
    },
    {
      "type": "function",
      "name": "COLUMN_BET_FIRST",
      "inputs": [],
      "outputs": [
        {
          "name": "",
          "type": "uint8",
          "internalType": "uint8"
        }
      ],
      "stateMutability": "view"
    },
    {
      "type": "function",
      "name": "COLUMN_BET_SECOND",
      "inputs": [],
      "outputs": [
        {
          "name": "",
          "type": "uint8",
          "internalType": "uint8"
        }
      ],
      "stateMutability": "view"
    },
    {
      "type": "function",
      "name": "COLUMN_BET_THIRD",
      "inputs": [],
      "outputs": [
        {
          "name": "",
          "type": "uint8",
          "internalType": "uint8"
        }
      ],
      "stateMutability": "view"
    },
    {
      "type": "function",
      "name": "DENOMINATOR",
      "inputs": [],
      "outputs": [
        {
          "name": "",
          "type": "uint256",
          "internalType": "uint256"
        }
      ],
      "stateMutability": "view"
    },
    {
      "type": "function",
      "name": "DOZEN_BET_FIRST",
      "inputs": [],
      "outputs": [
        {
          "name": "",
          "type": "uint8",
          "internalType": "uint8"
        }
      ],
      "stateMutability": "view"
    },
    {
      "type": "function",
      "name": "DOZEN_BET_SECOND",
      "inputs": [],
      "outputs": [
        {
          "name": "",
          "type": "uint8",
          "internalType": "uint8"
        }
      ],
      "stateMutability": "view"
    },
    {
      "type": "function",
      "name": "DOZEN_BET_THIRD",
      "inputs": [],
      "outputs": [
        {
          "name": "",
          "type": "uint8",
          "internalType": "uint8"
        }
      ],
      "stateMutability": "view"
    },
    {
      "type": "function",
      "name": "EVEN_BET",
      "inputs": [],
      "outputs": [
        {
          "name": "",
          "type": "uint8",
          "internalType": "uint8"
        }
      ],
      "stateMutability": "view"
    },
    {
      "type": "function",
      "name": "HIGH_BET",
      "inputs": [],
      "outputs": [
        {
          "name": "",
          "type": "uint8",
          "internalType": "uint8"
        }
      ],
      "stateMutability": "view"
    },
    {
      "type": "function",
      "name": "LOW_BET",
      "inputs": [],
      "outputs": [
        {
          "name": "",
          "type": "uint8",
          "internalType": "uint8"
        }
      ],
      "stateMutability": "view"
    },
    {
      "type": "function",
      "name": "MAX_BET_AMOUNT",
      "inputs": [],
      "outputs": [
        {
          "name": "",
          "type": "uint256",
          "internalType": "uint256"
        }
      ],
      "stateMutability": "view"
    },
    {
      "type": "function",
      "name": "MAX_HISTORY_SIZE",
      "inputs": [],
      "outputs": [
        {
          "name": "",
          "type": "uint256",
          "internalType": "uint256"
        }
      ],
      "stateMutability": "view"
    },
    {
      "type": "function",
      "name": "MAX_NUMBER",
      "inputs": [],
      "outputs": [
        {
          "name": "",
          "type": "uint8",
          "internalType": "uint8"
        }
      ],
      "stateMutability": "view"
    },
    {
      "type": "function",
      "name": "MAX_POSSIBLE_PAYOUT",
      "inputs": [],
      "outputs": [
        {
          "name": "",
          "type": "uint256",
          "internalType": "uint256"
        }
      ],
      "stateMutability": "view"
    },
    {
      "type": "function",
      "name": "MAX_TOTAL_BET_AMOUNT",
      "inputs": [],
      "outputs": [
        {
          "name": "",
          "type": "uint256",
          "internalType": "uint256"
        }
      ],
      "stateMutability": "view"
    },
    {
      "type": "function",
      "name": "ODD_BET",
      "inputs": [],
      "outputs": [
        {
          "name": "",
          "type": "uint8",
          "internalType": "uint8"
        }
      ],
      "stateMutability": "view"
    },
    {
      "type": "function",
      "name": "RED_BET",
      "inputs": [],
      "outputs": [
        {
          "name": "",
          "type": "uint8",
          "internalType": "uint8"
        }
      ],
      "stateMutability": "view"
    },
    {
      "type": "function",
      "name": "RESULT_FORCE_STOPPED",
      "inputs": [],
      "outputs": [
        {
          "name": "",
          "type": "uint8",
          "internalType": "uint8"
        }
      ],
      "stateMutability": "view"
    },
    {
      "type": "function",
      "name": "RESULT_RECOVERED",
      "inputs": [],
      "outputs": [
        {
          "name": "",
          "type": "uint8",
          "internalType": "uint8"
        }
      ],
      "stateMutability": "view"
    },
    {
      "type": "function",
      "name": "STRAIGHT_BET",
      "inputs": [],
      "outputs": [
        {
          "name": "",
          "type": "uint8",
          "internalType": "uint8"
        }
      ],
      "stateMutability": "view"
    },
    {
      "type": "function",
      "name": "canStartNewGame",
      "inputs": [
        {
          "name": "player",
          "type": "address",
          "internalType": "address"
        }
      ],
      "outputs": [
        {
          "name": "",
          "type": "bool",
          "internalType": "bool"
        }
      ],
      "stateMutability": "view"
    },
    {
      "type": "function",
      "name": "forceStopGame",
      "inputs": [
        {
          "name": "player",
          "type": "address",
          "internalType": "address"
        }
      ],
      "outputs": [],
      "stateMutability": "nonpayable"
    },
    {
      "type": "function",
      "name": "gamaToken",
      "inputs": [],
      "outputs": [
        {
          "name": "",
          "type": "address",
          "internalType": "contract IERC20"
        }
      ],
      "stateMutability": "view"
    },
    {
      "type": "function",
      "name": "getAllBetTypes",
      "inputs": [],
      "outputs": [
        {
          "name": "betTypeIds",
          "type": "uint8[]",
          "internalType": "uint8[]"
        },
        {
          "name": "names",
          "type": "string[]",
          "internalType": "string[]"
        },
        {
          "name": "requiresNumbers",
          "type": "bool[]",
          "internalType": "bool[]"
        },
        {
          "name": "payoutMultipliers",
          "type": "uint256[]",
          "internalType": "uint256[]"
        }
      ],
      "stateMutability": "pure"
    },
    {
      "type": "function",
      "name": "getBetDetails",
      "inputs": [
        {
          "name": "player",
          "type": "address",
          "internalType": "address"
        },
        {
          "name": "betIndex",
          "type": "uint256",
          "internalType": "uint256"
        }
      ],
      "outputs": [
        {
          "name": "timestamp",
          "type": "uint256",
          "internalType": "uint256"
        },
        {
          "name": "betDetails",
          "type": "tuple[]",
          "internalType": "struct BetDetails[]",
          "components": [
            {
              "name": "betType",
              "type": "uint8",
              "internalType": "enum BetType"
            },
            {
              "name": "numbers",
              "type": "uint8[]",
              "internalType": "uint8[]"
            },
            {
              "name": "amount",
              "type": "uint256",
              "internalType": "uint256"
            },
            {
              "name": "payout",
              "type": "uint256",
              "internalType": "uint256"
            }
          ]
        },
        {
          "name": "resultNumber",
          "type": "uint8",
          "internalType": "uint8"
        },
        {
          "name": "isWin",
          "type": "bool",
          "internalType": "bool"
        }
      ],
      "stateMutability": "view"
    },
    {
      "type": "function",
      "name": "getBetTypeInfo",
      "inputs": [
        {
          "name": "betTypeId",
          "type": "uint8",
          "internalType": "uint8"
        }
      ],
      "outputs": [
        {
          "name": "name",
          "type": "string",
          "internalType": "string"
        },
        {
          "name": "requiresNumber",
          "type": "bool",
          "internalType": "bool"
        },
        {
          "name": "multiplier",
          "type": "uint256",
          "internalType": "uint256"
        }
      ],
      "stateMutability": "pure"
    },
    {
      "type": "function",
      "name": "getGameStatus",
      "inputs": [
        {
          "name": "player",
          "type": "address",
          "internalType": "address"
        }
      ],
      "outputs": [
        {
          "name": "isActive",
          "type": "bool",
          "internalType": "bool"
        },
        {
          "name": "isWin",
          "type": "bool",
          "internalType": "bool"
        },
        {
          "name": "isCompleted",
          "type": "bool",
          "internalType": "bool"
        },
        {
          "name": "winningNumber",
          "type": "uint8",
          "internalType": "uint8"
        },
        {
          "name": "totalAmount",
          "type": "uint256",
          "internalType": "uint256"
        },
        {
          "name": "totalPayout",
          "type": "uint256",
          "internalType": "uint256"
        },
        {
          "name": "requestId",
          "type": "uint256",
          "internalType": "uint256"
        },
        {
          "name": "requestExists",
          "type": "bool",
          "internalType": "bool"
        },
        {
          "name": "requestProcessed",
          "type": "bool",
          "internalType": "bool"
        },
        {
          "name": "recoveryEligible",
          "type": "bool",
          "internalType": "bool"
        },
        {
          "name": "lastPlayTimestamp",
          "type": "uint256",
          "internalType": "uint256"
        }
      ],
      "stateMutability": "view"
    },
    {
      "type": "function",
      "name": "getPlayerForRequest",
      "inputs": [
        {
          "name": "requestId",
          "type": "uint256",
          "internalType": "uint256"
        }
      ],
      "outputs": [
        {
          "name": "",
          "type": "address",
          "internalType": "address"
        }
      ],
      "stateMutability": "view"
    },
    {
      "type": "function",
      "name": "getPossibleWinningNumbers",
      "inputs": [
        {
          "name": "betTypeId",
          "type": "uint8",
          "internalType": "uint8"
        }
      ],
      "outputs": [
        {
          "name": "numbers",
          "type": "uint8[]",
          "internalType": "uint8[]"
        }
      ],
      "stateMutability": "pure"
    },
    {
      "type": "function",
      "name": "getUserBetHistory",
      "inputs": [
        {
          "name": "player",
          "type": "address",
          "internalType": "address"
        },
        {
          "name": "offset",
          "type": "uint256",
          "internalType": "uint256"
        },
        {
          "name": "limit",
          "type": "uint256",
          "internalType": "uint256"
        }
      ],
      "outputs": [
        {
          "name": "bets",
          "type": "tuple[]",
          "internalType": "struct Bet[]",
          "components": [
            {
              "name": "timestamp",
              "type": "uint256",
              "internalType": "uint256"
            },
            {
              "name": "bets",
              "type": "tuple[]",
              "internalType": "struct BetDetails[]",
              "components": [
                {
                  "name": "betType",
                  "type": "uint8",
                  "internalType": "enum BetType"
                },
                {
                  "name": "numbers",
                  "type": "uint8[]",
                  "internalType": "uint8[]"
                },
                {
                  "name": "amount",
                  "type": "uint256",
                  "internalType": "uint256"
                },
                {
                  "name": "payout",
                  "type": "uint256",
                  "internalType": "uint256"
                }
              ]
            },
            {
              "name": "winningNumber",
              "type": "uint8",
              "internalType": "uint8"
            },
            {
              "name": "completed",
              "type": "bool",
              "internalType": "bool"
            },
            {
              "name": "isActive",
              "type": "bool",
              "internalType": "bool"
            }
          ]
        },
        {
          "name": "total",
          "type": "uint256",
          "internalType": "uint256"
        }
      ],
      "stateMutability": "view"
    },
    {
      "type": "function",
      "name": "hasPendingRequest",
      "inputs": [
        {
          "name": "player",
          "type": "address",
          "internalType": "address"
        }
      ],
      "outputs": [
        {
          "name": "",
          "type": "bool",
          "internalType": "bool"
        }
      ],
      "stateMutability": "view"
    },
    {
      "type": "function",
      "name": "owner",
      "inputs": [],
      "outputs": [
        {
          "name": "",
          "type": "address",
          "internalType": "address"
        }
      ],
      "stateMutability": "view"
    },
    {
      "type": "function",
      "name": "pause",
      "inputs": [],
      "outputs": [],
      "stateMutability": "nonpayable"
    },
    {
      "type": "function",
      "name": "paused",
      "inputs": [],
      "outputs": [
        {
          "name": "",
          "type": "bool",
          "internalType": "bool"
        }
      ],
      "stateMutability": "view"
    },
    {
      "type": "function",
      "name": "placeBet",
      "inputs": [
        {
          "name": "betRequests",
          "type": "tuple[]",
          "internalType": "struct BetRequest[]",
          "components": [
            {
              "name": "betTypeId",
              "type": "uint8",
              "internalType": "uint8"
            },
            {
              "name": "number",
              "type": "uint8",
              "internalType": "uint8"
            },
            {
              "name": "amount",
              "type": "uint256",
              "internalType": "uint256"
            }
          ]
        }
      ],
      "outputs": [
        {
          "name": "requestId",
          "type": "uint256",
          "internalType": "uint256"
        }
      ],
      "stateMutability": "nonpayable"
    },
    {
      "type": "function",
      "name": "rawFulfillRandomWords",
      "inputs": [
        {
          "name": "requestId",
          "type": "uint256",
          "internalType": "uint256"
        },
        {
          "name": "randomWords",
          "type": "uint256[]",
          "internalType": "uint256[]"
        }
      ],
      "outputs": [],
      "stateMutability": "nonpayable"
    },
    {
      "type": "function",
      "name": "recoverOwnStuckGame",
      "inputs": [],
      "outputs": [],
      "stateMutability": "nonpayable"
    },
    {
      "type": "function",
      "name": "renounceOwnership",
      "inputs": [],
      "outputs": [],
      "stateMutability": "nonpayable"
    },
    {
      "type": "function",
      "name": "s_requests",
      "inputs": [
        {
          "name": "",
          "type": "uint256",
          "internalType": "uint256"
        }
      ],
      "outputs": [
        {
          "name": "fulfilled",
          "type": "bool",
          "internalType": "bool"
        },
        {
          "name": "exists",
          "type": "bool",
          "internalType": "bool"
        }
      ],
      "stateMutability": "view"
    },
    {
      "type": "function",
      "name": "totalGamesPlayed",
      "inputs": [],
      "outputs": [
        {
          "name": "",
          "type": "uint256",
          "internalType": "uint256"
        }
      ],
      "stateMutability": "view"
    },
    {
      "type": "function",
      "name": "totalPayoutAmount",
      "inputs": [],
      "outputs": [
        {
          "name": "",
          "type": "uint256",
          "internalType": "uint256"
        }
      ],
      "stateMutability": "view"
    },
    {
      "type": "function",
      "name": "totalWageredAmount",
      "inputs": [],
      "outputs": [
        {
          "name": "",
          "type": "uint256",
          "internalType": "uint256"
        }
      ],
      "stateMutability": "view"
    },
    {
      "type": "function",
      "name": "transferOwnership",
      "inputs": [
        {
          "name": "newOwner",
          "type": "address",
          "internalType": "address"
        }
      ],
      "outputs": [],
      "stateMutability": "nonpayable"
    },
    {
      "type": "function",
      "name": "unpause",
      "inputs": [],
      "outputs": [],
      "stateMutability": "nonpayable"
    },
    {
      "type": "function",
      "name": "userData",
      "inputs": [
        {
          "name": "",
          "type": "address",
          "internalType": "address"
        }
      ],
      "outputs": [
        {
          "name": "maxHistorySize",
          "type": "uint256",
          "internalType": "uint256"
        },
        {
          "name": "currentRequestId",
          "type": "uint256",
          "internalType": "uint256"
        },
        {
          "name": "requestFulfilled",
          "type": "bool",
          "internalType": "bool"
        },
        {
          "name": "lastPlayedTimestamp",
          "type": "uint256",
          "internalType": "uint256"
        },
        {
          "name": "lastPlayedBlock",
          "type": "uint256",
          "internalType": "uint256"
        },
        {
          "name": "historyIndex",
          "type": "uint8",
          "internalType": "uint8"
        }
      ],
      "stateMutability": "view"
    },
    {
      "type": "event",
      "name": "BetPlaced",
      "inputs": [
        {
          "name": "player",
          "type": "address",
          "indexed": true,
          "internalType": "address"
        },
        {
          "name": "requestId",
          "type": "uint256",
          "indexed": false,
          "internalType": "uint256"
        }
      ],
      "anonymous": false
    },
    {
      "type": "event",
      "name": "GameCompleted",
      "inputs": [
        {
          "name": "player",
          "type": "address",
          "indexed": true,
          "internalType": "address"
        },
        {
          "name": "requestId",
          "type": "uint256",
          "indexed": false,
          "internalType": "uint256"
        }
      ],
      "anonymous": false
    },
    {
      "type": "event",
      "name": "GameRecovered",
      "inputs": [
        {
          "name": "player",
          "type": "address",
          "indexed": true,
          "internalType": "address"
        },
        {
          "name": "requestId",
          "type": "uint256",
          "indexed": false,
          "internalType": "uint256"
        }
      ],
      "anonymous": false
    },
    {
      "type": "event",
      "name": "OwnershipTransferred",
      "inputs": [
        {
          "name": "previousOwner",
          "type": "address",
          "indexed": true,
          "internalType": "address"
        },
        {
          "name": "newOwner",
          "type": "address",
          "indexed": true,
          "internalType": "address"
        }
      ],
      "anonymous": false
    },
    {
      "type": "event",
      "name": "Paused",
      "inputs": [
        {
          "name": "account",
          "type": "address",
          "indexed": false,
          "internalType": "address"
        }
      ],
      "anonymous": false
    },
    {
      "type": "event",
      "name": "Unpaused",
      "inputs": [
        {
          "name": "account",
          "type": "address",
          "indexed": false,
          "internalType": "address"
        }
      ],
      "anonymous": false
    },
    {
      "type": "error",
      "name": "BurnFailed",
      "inputs": [
        {
          "name": "account",
          "type": "address",
          "internalType": "address"
        },
        {
          "name": "amount",
          "type": "uint256",
          "internalType": "uint256"
        }
      ]
    },
    {
      "type": "error",
      "name": "EnforcedPause",
      "inputs": []
    },
    {
      "type": "error",
      "name": "ExpectedPause",
      "inputs": []
    },
    {
      "type": "error",
      "name": "InsufficientAllowance",
      "inputs": [
        {
          "name": "required",
          "type": "uint256",
          "internalType": "uint256"
        },
        {
          "name": "allowed",
          "type": "uint256",
          "internalType": "uint256"
        }
      ]
    },
    {
      "type": "error",
      "name": "InsufficientUserBalance",
      "inputs": [
        {
          "name": "required",
          "type": "uint256",
          "internalType": "uint256"
        },
        {
          "name": "available",
          "type": "uint256",
          "internalType": "uint256"
        }
      ]
    },
    {
      "type": "error",
      "name": "InvalidBetParameters",
      "inputs": [
        {
          "name": "reason",
          "type": "string",
          "internalType": "string"
        }
      ]
    },
    {
      "type": "error",
      "name": "InvalidBetType",
      "inputs": [
        {
          "name": "betType",
          "type": "uint256",
          "internalType": "uint256"
        }
      ]
    },
    {
      "type": "error",
      "name": "MaxPayoutExceeded",
      "inputs": [
        {
          "name": "potentialPayout",
          "type": "uint256",
          "internalType": "uint256"
        },
        {
          "name": "maxAllowed",
          "type": "uint256",
          "internalType": "uint256"
        }
      ]
    },
    {
      "type": "error",
      "name": "MintFailed",
      "inputs": [
        {
          "name": "account",
          "type": "address",
          "internalType": "address"
        },
        {
          "name": "amount",
          "type": "uint256",
          "internalType": "uint256"
        }
      ]
    },
    {
      "type": "error",
      "name": "OnlyCoordinatorCanFulfill",
      "inputs": [
        {
          "name": "have",
          "type": "address",
          "internalType": "address"
        },
        {
          "name": "want",
          "type": "address",
          "internalType": "address"
        }
      ]
    },
    {
      "type": "error",
      "name": "OwnableInvalidOwner",
      "inputs": [
        {
          "name": "owner",
          "type": "address",
          "internalType": "address"
        }
      ]
    },
    {
      "type": "error",
      "name": "OwnableUnauthorizedAccount",
      "inputs": [
        {
          "name": "account",
          "type": "address",
          "internalType": "address"
        }
      ]
    },
    {
      "type": "error",
      "name": "ReentrancyGuardReentrantCall",
      "inputs": []
    },
    {
      "type": "error",
      "name": "TransferFailed",
      "inputs": [
        {
          "name": "from",
          "type": "address",
          "internalType": "address"
        },
        {
          "name": "to",
          "type": "address",
          "internalType": "address"
        },
        {
          "name": "amount",
          "type": "uint256",
          "internalType": "uint256"
        }
      ]
    }
  ],
  "bytecode": {
    "object": "0x610160346102ee57601f6151f938819003918201601f19168301916001600160401b038311848410176102f25780849260e0946040528339810103126102ee5761004881610306565b9061005560208201610306565b60408201519092906001600160401b03811681036102ee5760608301519060808401519263ffffffff8416908185036102ee5760a08601519561ffff871687036102ee5760c001519660ff8816908189036102ee5760015f558060805233156102db5760018054610100600160a81b0319811633600881811b610100600160a81b031692909217909355604051959291901c6001600160a01b03167f8be0079c531659141344cd1fd0a4f28419497f9722a3daafe3b4186f6b6457e05f80a36001600160a01b031692831561029957506001600160a01b0316928315610254571561020557156101c057600280546001600160a01b03191691909117905560a05260c05260e052610100526101205261014052604051614ede908161031b82396080518161285a015260a051816108cc015260c0518161080a015260e051816107db01526101005181610860015261012051816108340152610140518181816108890152613f340152f35b60405162461bcd60e51b815260206004820152601e60248201527f4e756d626572206f6620776f7264732063616e6e6f74206265207a65726f00006044820152606490fd5b60405162461bcd60e51b815260206004820152602160248201527f43616c6c6261636b20676173206c696d69742063616e6e6f74206265207a65726044820152606f60f81b6064820152608490fd5b60405162461bcd60e51b815260206004820152601e60248201527f56524620636f6f7264696e61746f722063616e6e6f74206265207a65726f00006044820152606490fd5b62461bcd60e51b815260206004820152601c60248201527f546f6b656e20616464726573732063616e6e6f74206265207a65726f000000006044820152606490fd5b631e4fbdf760e01b5f525f60045260245ffd5b5f80fd5b634e487b7160e01b5f52604160045260245ffd5b51906001600160a01b03821682036102ee5756fe6080806040526004361015610012575f80fd5b5f905f3560e01c908163042431511461291a575080630c99375d146128f757806319469f1b146128dc5780631fe543e3146127d35780632257b057146127b85780632d2cd034146127945780632ff214941461265e578063309167f51461263a57806336b39a601461261f57806338f8bc6d146126045780633f4ba83a14612579578063432aeb8f1461255f5780634689b4411461253a57806354e4437e146124bf57806357816f3e146124a45780635a0db4d21461204d5780635bdb2e1b146120305780635c492129146120135780635c975abb14611ff15780635d424b8514611fc4578063715018a614611f435780637902317014611d525780637d3d31ad14611d375780638456cb5914611cd35780638da5cb5b14611c9d578063918f867414611c8157806394b9b50714611c6657806394bae38514611c4b578063a168fa8914611c11578063a20ff9fc14611855578063a398222714611839578063b34daef41461181d578063b52a0855146112ee578063b8a5e438146112d2578063c1066251146112b6578063c1a5fe511461058d578063c891091314610505578063d56ec8c9146104d1578063d6b6cd59146104b5578063ddebc95214610499578063e3286e55146103b3578063e60271cf14610397578063e7efcfc214610379578063f2fde38b14610287578063fa198c4f146102365763fea9b57214610218575f80fd5b34610233578060031936011261023357602060405160248152f35b80fd5b5034610233576020600319360112610233576004359060ff821682036102335761027661026283613b01565b604051938493606085526060850190612b50565b911515602084015260408301520390f35b5034610233576020600319360112610233576102a1612956565b6102a961446e565b73ffffffffffffffffffffffffffffffffffffffff811690811561034d5773ffffffffffffffffffffffffffffffffffffffff9074ffffffffffffffffffffffffffffffffffffffff006001549160081b167fffffffffffffffffffffff0000000000000000000000000000000000000000ff82161760015560081c167f8be0079c531659141344cd1fd0a4f28419497f9722a3daafe3b4186f6b6457e08380a380f35b6024837f1e4fbdf700000000000000000000000000000000000000000000000000000000815280600452fd5b50346102335780600319360112610233576020600554604051908152f35b5034610233578060031936011261023357602060405160098152f35b5034610233576060600319360112610233576103dd6103d0612956565b604435906024359061394e565b9190604051916040830160408452825180915260608401602060608360051b870101940192905b828210610418578580868960208301520390f35b90919293602080827fffffffffffffffffffffffffffffffffffffffffffffffffffffffffffffffa089600195030185528751908151815260808061046a8585015160a08786015260a0850190612a36565b9360ff604082015116604085015260608101511515606085015201511515910152960192019201909291610404565b5034610233578060031936011261023357602060405160068152f35b5034610233578060031936011261023357602060405160038152f35b5034610233578060031936011261023357602073ffffffffffffffffffffffffffffffffffffffff60025416604051908152f35b503461023357602060031936011261023357604060c09173ffffffffffffffffffffffffffffffffffffffff610539612956565b16815260036020522060018101549060028101549060ff60038201541660048201549060ff6006600585015494015416936040519586526020860152151560408501526060840152608083015260a0820152f35b5034610233576020600319360112610233576004359067ffffffffffffffff821161023357366023830112156102335781600401359067ffffffffffffffff82116102335760248301926024369160608502010111610233576105ee6144be565b6105f66144f5565b811561127157600f821161122c57338152600360205260408120805480151590816111d8575b50611193576002810193845461114e578280805b868110610f405750906a0e79c4e6a3023e818000008111610f065773ffffffffffffffffffffffffffffffffffffffff6002541690604051907f6f97e31c000000000000000000000000000000000000000000000000000000008252602082600481865afa918215610efb578792610ec7575b50818111610e995750506040517f70a08231000000000000000000000000000000000000000000000000000000008152336004820152602081602481855afa908115610dae579083918791610e64575b5010610db9576040517fdd62ed3e000000000000000000000000000000000000000000000000000000008152336004820152306024820152602081604481855afa908115610dae579083918791610d79575b5010610cb957803b15610cb5576040517f79cc6790000000000000000000000000000000000000000000000000000000008152336004820152602481018390529085908290604490829084905af18015610caa57908591610c91575b50506107af906006546132d6565b600655604051937f5d3b1d300000000000000000000000000000000000000000000000000000000085527f0000000000000000000000000000000000000000000000000000000000000000600486015267ffffffffffffffff7f000000000000000000000000000000000000000000000000000000000000000016602486015261ffff7f000000000000000000000000000000000000000000000000000000000000000016604486015263ffffffff7f000000000000000000000000000000000000000000000000000000000000000016606486015260ff7f000000000000000000000000000000000000000000000000000000000000000016608486015260208560a4818773ffffffffffffffffffffffffffffffffffffffff7f0000000000000000000000000000000000000000000000000000000000000000165af1948515610c86578495610c4e575b5060209560405161090d88826129fb565b8581525f3681376040516060810181811067ffffffffffffffff821117610c2157604090815287825260018a83018181528284019485528a8a5260078c529189209251835492517fffffffffffffffffffffffffffffffffffffffffffffffffffffffffffff000090931660ff911515919091161791151560081b61ff00169190911782550190519081519167ffffffffffffffff8311610c2157908983926109b88b9695846135c6565b01908852898820885b838110610c0c57505050508186526008885260408620337fffffffffffffffffffffffff00000000000000000000000000000000000000008254161790558186526009885260408620600160ff19825416179055426004860155436005860155556003830160ff198154169055610a3781612a1e565b91610a4560405193846129fb565b818352601f19610a5483612a1e565b0187865b828110610bdd5750505060405192610a6f846129df565b42845287840190815285604085015285606085015260016080850152855b838110610b715750505050600a8254105f14610b4f57815468010000000000000000811015610b225791610ad5600692610acf85600180989701855584612b75565b9061360d565b0160ff610ae481835416613506565b1660ff198254161790556040518381527f43e08d78302cdf9c94e1ffd293c2a3696139ee41cf3199b6f5eed9c7f6cc6090853392a255604051908152f35b6024847f4e487b710000000000000000000000000000000000000000000000000000000081526041600452fd5b81610b6c600692610acf600a60ff86600199980154160684612b75565b610ad5565b80610bd6818b610b8c610b876001968a8a6135fd565b614537565b6040610b9c858c8c9695966135fd565b013591610bb560405194610baf866129c3565b85612c1f565b83015260408201528a6060820152855190610bd083836132b3565b526132b3565b5001610a8d565b8190604051610beb816129c3565b89815260608382015289604082015289606082015282828901015201610a58565b8251818301558a9550918b01916001016109c1565b6024887f4e487b710000000000000000000000000000000000000000000000000000000081526041600452fd5b9094506020813d602011610c7e575b81610c6a602093836129fb565b81010312610c7a5751935f6108fc565b5f80fd5b3d9150610c5d565b6040513d86823e3d90fd5b81610c9b916129fb565b610ca657835f6107a1565b8380fd5b6040513d87823e3d90fd5b8480fd5b6040517fdd62ed3e0000000000000000000000000000000000000000000000000000000081523360048201523060248201529085908390602090849060449082905afa908115610d6e578291610d39575b604493507f2a1b2dd8000000000000000000000000000000000000000000000000000000008352600452602452fd5b90506020833d602011610d66575b81610d54602093836129fb565b81010312610c7a576044925190610d0a565b3d9150610d47565b6040513d84823e3d90fd5b9150506020813d602011610da6575b81610d95602093836129fb565b81010312610c7a578290515f610745565b3d9150610d88565b6040513d88823e3d90fd5b60249160208692604051948580927f70a082310000000000000000000000000000000000000000000000000000000082523360048301525afa908115610d6e578291610e2f575b604493507f5f504d20000000000000000000000000000000000000000000000000000000008352600452602452fd5b90506020833d602011610e5c575b81610e4a602093836129fb565b81010312610c7a576044925190610e00565b3d9150610e3d565b9150506020813d602011610e91575b81610e80602093836129fb565b81010312610c7a578290515f6106f3565b3d9150610e73565b7f21e510be000000000000000000000000000000000000000000000000000000008752600452602452604485fd5b9091506020813d602011610ef3575b81610ee3602093836129fb565b81010312610c7a5751905f6106a3565b3d9150610ed6565b6040513d89823e3d90fd5b7f21e510be0000000000000000000000000000000000000000000000000000000085526004526a0e79c4e6a3023e81800000602452604484fd5b6040610f4d8289876135fd565b0135156111095769152d02c7e14af68000006040610f6c838a886135fd565b0135116110c457610f8b6040610f83838a886135fd565b0135836132d6565b91821061107f578392610fd1612710610fca8a6040610fc387610fbc610fb6610b8783878e9f6135fd565b50614c1a565b938c6135fd565b013561357c565b04826132d6565b90811061103a576969e10de76676d0800000909211610ff557600101919091610630565b60646040516334460f4160e01b815260206004820152601a60248201527f546f74616c2062657420616d6f756e7420746f6f206c617267650000000000006044820152fd5b60646040516334460f4160e01b815260206004820152601360248201527f4d6178207061796f7574206f766572666c6f77000000000000000000000000006044820152fd5b60646040516334460f4160e01b815260206004820152601560248201527f546f74616c20616d6f756e74206f766572666c6f7700000000000000000000006044820152fd5b60646040516334460f4160e01b815260206004820152601b60248201527f53696e676c652062657420616d6f756e7420746f6f206c6172676500000000006044820152fd5b60646040516334460f4160e01b815260206004820152601260248201527f496e76616c69642062657420616d6f756e7400000000000000000000000000006044820152fd5b60646040516334460f4160e01b815260206004820152601a60248201527f557365722068617320612070656e64696e6720726571756573740000000000006044820152fd5b60646040516334460f4160e01b815260206004820152601760248201527f557365722068617320616e206163746976652067616d650000000000000000006044820152fd5b5f198101915081116111ff5760026111f260ff9284612b75565b50015460101c165f61061c565b6024837f4e487b710000000000000000000000000000000000000000000000000000000081526011600452fd5b60646040516334460f4160e01b815260206004820152600d60248201527f546f6f206d616e792062657473000000000000000000000000000000000000006044820152fd5b60646040516334460f4160e01b815260206004820152601060248201527f4e6f20626574732070726f7669646564000000000000000000000000000000006044820152fd5b50346102335780600319360112610233576020604051600a8152f35b5034610233578060031936011261023357602060405160048152f35b503461023357602060031936011261023357611308612956565b61131061446e565b6113186144be565b73ffffffffffffffffffffffffffffffffffffffff811690818352600360205260408320918254801580156117c9575b611783575f198101908111611756576113619084612b75565b5091600284019384549182151591828093611740575b80611727575b6116bb57600581015461012c810180911161168e574311836113a260048401546132c7565b421181611674575b82159261166b575b508115611662575b506115f85787928896600181019788545b898183106115d357505050841561158d57600291611528575b0180547fffffffffffffffffffffffffffffffffffffffffffffffffffffffffff000000166101fe179055875b888754821015611443575080600261142b6001938a6132e3565b500154600361143a838b6132e3565b50015501611411565b9650509060038693928489550160ff19815416905573ffffffffffffffffffffffffffffffffffffffff6002541691823b15610ca6576040517f40c10f1900000000000000000000000000000000000000000000000000000000815273ffffffffffffffffffffffffffffffffffffffff92909216600483015260248201529082908290604490829084905af18015610d6e5761150f575b505060207f448a475c5a8d6a583ecaa725cd34b02e206d32726277fcc19372f7ff87bc7e3491604051908152a26001815580f35b81611519916129fb565b6115245782846114db565b8280fd5b858a52600860205260408a207fffffffffffffffffffffffff00000000000000000000000000000000000000008154169055858a52600960205260408a2060ff198154169055858a526007602052611588600160408c208c8155016135a5565b6113e4565b6040516334460f4160e01b815260206004820152601160248201527f4e6f7468696e6720746f20726566756e640000000000000000000000000000006044820152606490fd5b829760026115e7600194956115f0946132e3565b500154906132d6565b9601906113cb565b60846040516334460f4160e01b8152602060048201526024808201527f47616d65206e6f7420656c696769626c6520666f7220666f7263652073746f7060448201527f20796574000000000000000000000000000000000000000000000000000000006064820152fd5b9050155f6113ba565b1591505f6113b2565b868b52600760205260408b205460081c60ff1691506113aa565b6024897f4e487b710000000000000000000000000000000000000000000000000000000081526011600452fd5b6040516334460f4160e01b815260206004820152602860248201527f52657175657374206a7573742066756c66696c6c65642c206c6574205652462060448201527f636f6d706c6574650000000000000000000000000000000000000000000000006064820152608490fd5b506005810154600a810180911161168e5743111561137d565b50838852600760205260ff604089205416611377565b6024857f4e487b710000000000000000000000000000000000000000000000000000000081526011600452fd5b6040516334460f4160e01b815260206004820152600e60248201527f4e6f206163746976652067616d650000000000000000000000000000000000006044820152606490fd5b505f1981018181116117f05760026117e360ff9287612b75565b50015460101c1615611348565b6024867f4e487b710000000000000000000000000000000000000000000000000000000081526011600452fd5b5034610233578060031936011261023357602060405160028152f35b5034610233578060031936011261023357602060405160078152f35b5034610c7a575f600319360112610c7a5761186e6144be565b6118766144f5565b335f52600360205260405f20805480158015611bea575b611783575f198101908111611b5f576118a69082612b75565b5060028201918254908115611ba557815f52600760205260ff60405f20541680611b8c575b6116bb57600581015461012c8101809111611b5f5743116118ef60048301546132c7565b4211835f52600760205260ff60405f205460081c1690821592611b56575b508115611b4d575b50611ae2575f905f93600181019485545b808210611ac6575050821561158d57600290845f526007602052611952600160405f205f8155016135a5565b5f85815260086020908152604080832080547fffffffffffffffffffffffff000000000000000000000000000000000000000016905560099091528120805460ff19169055910180547fffffffffffffffffffffffffffffffffffffffffffffffffffffffffff000000166101ff1790555b84548110156119f4578060026119dc600193886132e3565b50015460036119eb83896132e3565b500155016119c4565b8684846003855f8b550160ff19815416905573ffffffffffffffffffffffffffffffffffffffff60025416803b15610c7a576040517f40c10f1900000000000000000000000000000000000000000000000000000000815233600482015260248101929092525f908290604490829084905af18015611abb57611aa6575b506040519081527f448a475c5a8d6a583ecaa725cd34b02e206d32726277fcc19372f7ff87bc7e3460203392a26001815580f35b611ab39192505f906129fb565b5f9082611a72565b6040513d5f823e3d90fd5b9093611ada60019160026115e7888b6132e3565b940190611926565b60846040516334460f4160e01b815260206004820152602260248201527f47616d65206e6f7420656c696769626c6520666f72207265636f76657279207960448201527f65740000000000000000000000000000000000000000000000000000000000006064820152fd5b9050155f611915565b1591505f61190d565b7f4e487b71000000000000000000000000000000000000000000000000000000005f52601160045260245ffd5b506005810154600a8101809111611b5f574311156118cb565b60646040516334460f4160e01b815260206004820152601d60248201527f4e6f2070656e64696e67207265717565737420746f207265636f7665720000006044820152fd5b505f198101818111611b5f576002611c0460ff9285612b75565b50015460101c161561188d565b34610c7a576020600319360112610c7a576004355f5260076020526040805f205460ff8251918181161515835260081c1615156020820152f35b34610c7a575f600319360112610c7a576020604051600a8152f35b34610c7a575f600319360112610c7a576020604051600b8152f35b34610c7a575f600319360112610c7a5760206040516127108152f35b34610c7a575f600319360112610c7a57602073ffffffffffffffffffffffffffffffffffffffff60015460081c16604051908152f35b34610c7a575f600319360112610c7a57611ceb61446e565b611cf36144be565b611cfb6144f5565b600160ff19815416176001557f62e78cea01bee320cd4e420270b5ea74000d11b0c9f74754ebdbfc544b05a2586020604051338152a160015f55005b34610c7a575f600319360112610c7a576020604051600c8152f35b34610c7a575f600319360112610c7a576040516101c0611d7281836129fb565b600d8252601f198101908136602085013760405190611d9181836129fb565b600d82525f5b838110611f325750604051611dac82826129fb565b600d8152602081019284368537611dc660405193846129fb565b600d835260208301943686375f5b60ff8116600d811015611e375781611e03611e2f838b81600196611df960ff99613b01565b97919390946132b3565b52611e0e838a6132b3565b52611e1982896132b3565b50611e24828a6132b3565b9015159052886132b3565b520116611dd4565b5050611e559594939291604051968796608088526080880190612b1a565b8681036020880152825180825260208201916020808360051b8301019501925f915b838310611ef9575050505050602090868303604088015251918281520192905f5b818110611ede57505050602090848303606086015251918281520191905f5b818110611ec5575050500390f35b8251845285945060209384019390920191600101611eb7565b82511515855287965060209485019490920191600101611e98565b91939697989950919394602080611f1c83601f1986600196030187528a51612b50565b98019301930190928a9998979695949293611e77565b806060602080938601015201611d97565b34610c7a575f600319360112610c7a57611f5b61446e565b5f73ffffffffffffffffffffffffffffffffffffffff6001547fffffffffffffffffffffff0000000000000000000000000000000000000000ff811660015560081c167f8be0079c531659141344cd1fd0a4f28419497f9722a3daafe3b4186f6b6457e08280a3005b34610c7a576020600319360112610c7a576020611fe7611fe2612956565b613517565b6040519015158152f35b34610c7a575f600319360112610c7a57602060ff600154166040519015158152f35b34610c7a575f600319360112610c7a576020600454604051908152f35b34610c7a575f600319360112610c7a576020600654604051908152f35b34610c7a576020600319360112610c7a5760043560ff8116809103610c7a57806120d95750604051601f196104c061208581846129fb565b6025835201366020830137805f5b60ff8116602481116120b95790816120ae6120b493866132b3565b52613506565b612093565b50506120d591505b604051918291602083526020830190612b1a565b0390f35b600781036121d55750604051601f196102606120f581846129fb565b6012835201366020830137806040519161210e83612979565b6001835260036020840152600560408401526007606084015260096080840152600c60a0840152600e60c0840152601060e084015260126101008401526013610120840152601561014084015260176101608401526019610180840152601b6101a0840152601e6101c084015260206101e0840152602261020084015260246102208401525f5b60ff811660128110156121c75760ff91816121bf846121b66001958a6134f5565b511691876132b3565b520116612195565b505090506120d591506120c1565b600881036122ba5750604051601f196102606121f181846129fb565b6012835201366020830137806040519161220a83612979565b60028352600460208401526006604084015260086060840152600a6080840152600b60a0840152600d60c0840152600f60e08401526011610100840152601461012084015260166101408401526018610160840152601a610180840152601c6101a0840152601d6101c0840152601f6101e0840152602161020084015260236102208401525f5b60ff811660128110156121c75760ff91816122b2846121b66001958a6134f5565b520116612291565b6009810361232a5750604051601f196102606122d681846129fb565b6012835201366020830137805f5b60ff8116601281101561231e578160019160ff61231361230c61230783976134a5565b6134cb565b92876132b3565b9116905201166122e4565b5050506120d5906120c1565b600a81036123875750604051601f1961026061234681846129fb565b6012835201366020830137805f5b60ff8116601281101561231e578160019160ff61237c61230c61237783976134cb565b6134a5565b911690520116612354565b600b81036123dc5750604051601f196102606123a381846129fb565b6012835201366020830137805f5b60ff8116601281101561231e578160019160ff6123d161230c82966134a5565b9116905201166123b1565b600c0361243957604051601f196102606123f681846129fb565b6012835201366020830137805f5b60ff8116601281101561231e57601381019160ff8311611b5f5760ff928361242e600194876132b3565b911690520116612404565b60846040516334460f4160e01b815260206004820152602960248201527f496e76616c696420626574207479706520494420666f72206e756d626572206760448201527f656e65726174696f6e00000000000000000000000000000000000000000000006064820152fd5b34610c7a575f600319360112610c7a57602060405160ff8152f35b34610c7a576020600319360112610c7a5761016060ff6124e56124e0612956565b6132fc565b999a9296919790986040969496519b15158c52151560208c0152151560408b0152166060890152608088015260a087015260c0860152151560e085015215156101008401521515610120830152610140820152f35b34610c7a575f600319360112610c7a5760206040516a0e79c4e6a3023e818000008152f35b34610c7a575f600319360112610c7a5760206040515f8152f35b34610c7a575f600319360112610c7a5761259161446e565b6125996144be565b60015460ff8116156125dc5760ff19166001557f5db9ee0a495bf2e6ff9c91a7834c1ba4fdd244a5e8aa4e537bd38aeae4b073aa6020604051338152a160015f55005b7f8dfc202b000000000000000000000000000000000000000000000000000000005f5260045ffd5b34610c7a575f600319360112610c7a57602060405160fe8152f35b34610c7a575f600319360112610c7a57602060405160018152f35b34610c7a575f600319360112610c7a57602060405169152d02c7e14af68000008152f35b34610c7a576040600319360112610c7a57612677612956565b73ffffffffffffffffffffffffffffffffffffffff6024359116805f52600360205260405f2054821015612736576126c3916126bd915f52600360205260405f20612b75565b506131d9565b60208101905f805b835180518310156126f95760019160606126e8856126f1946132b3565b510151906132d6565b9101906126cb565b83858360ff60408451935194015116906127256040519485948552608060208601526080850190612a36565b916040840152151560608301520390f35b60646040517f08c379a000000000000000000000000000000000000000000000000000000000815260206004820152601160248201527f496e76616c69642062657420696e6465780000000000000000000000000000006044820152fd5b34610c7a575f600319360112610c7a5760206040516969e10de76676d08000008152f35b34610c7a575f600319360112610c7a57602060405160058152f35b34610c7a576040600319360112610c7a5760243567ffffffffffffffff8111610c7a5736602382011215610c7a5780600401359061281082612a1e565b9161281e60405193846129fb565b8083526024602084019160051b83010191368311610c7a57602401905b8282106128cc578373ffffffffffffffffffffffffffffffffffffffff7f0000000000000000000000000000000000000000000000000000000000000000169081330361289c576128969061288e6144be565b600435613f09565b60015f55005b507f1cf993f4000000000000000000000000000000000000000000000000000000005f523360045260245260445ffd5b813581526020918201910161283b565b34610c7a575f600319360112610c7a57602060405160088152f35b34610c7a576020600319360112610c7a576020611fe7612915612956565b612bbb565b34610c7a576020600319360112610c7a576020906004355f526008825273ffffffffffffffffffffffffffffffffffffffff60405f2054168152f35b6004359073ffffffffffffffffffffffffffffffffffffffff82168203610c7a57565b610240810190811067ffffffffffffffff82111761299657604052565b7f4e487b71000000000000000000000000000000000000000000000000000000005f52604160045260245ffd5b6080810190811067ffffffffffffffff82111761299657604052565b60a0810190811067ffffffffffffffff82111761299657604052565b90601f601f19910116810190811067ffffffffffffffff82111761299657604052565b67ffffffffffffffff81116129965760051b60200190565b9080602083519182815201916020808360051b8301019401925f915b838310612a6157505050505090565b9091929394601f19828203018352855190608081019180516009811015612aed578252602081015192608060208401528351809152602060a084019401905f905b808210612ad257505050604080820151908301526060908101519101529460209081019493600101920190612a52565b90919460208060019260ff8951168152019601920190612aa2565b7f4e487b71000000000000000000000000000000000000000000000000000000005f52602160045260245ffd5b90602080835192838152019201905f5b818110612b375750505090565b825160ff16845260209384019390920191600101612b2a565b90601f19601f602080948051918291828752018686015e5f8582860101520116010190565b8054821015612b8e575f52600360205f20910201905f90565b7f4e487b71000000000000000000000000000000000000000000000000000000005f52603260045260245ffd5b73ffffffffffffffffffffffffffffffffffffffff165f52600360205260405f2080548015612c19575f198101908111611b5f576002612bfd60ff9284612b75565b50015460101c169081612c0e575090565b600291500154151590565b50505f90565b6009821015612aed5752565b90604051918281549182825260208201905f5260205f20925f905b80601f83011061303157612d5c94549181811061301d575b818110613006575b818110612fef575b818110612fd8575b818110612fc2575b818110612fab575b818110612f94575b818110612f7d575b818110612f66575b818110612f4f575b818110612f38575b818110612f21575b818110612f0a575b818110612ef3575b818110612edc575b818110612ec5575b818110612eae575b818110612e97575b818110612e80575b818110612e69575b818110612e52575b818110612e3b575b818110612e24575b818110612e0d575b818110612df6575b818110612ddf575b818110612dc8575b818110612db1575b818110612d9a575b818110612d83575b818110612d6c575b10612d5e575b5003836129fb565b565b60f81c81526020015f612d54565b92602060019160ff8560f01c168152019301612d4e565b92602060019160ff8560e81c168152019301612d46565b92602060019160ff8560e01c168152019301612d3e565b92602060019160ff8560d81c168152019301612d36565b92602060019160ff8560d01c168152019301612d2e565b92602060019160ff8560c81c168152019301612d26565b92602060019160ff8560c01c168152019301612d1e565b92602060019160ff8560b81c168152019301612d16565b92602060019160ff8560b01c168152019301612d0e565b92602060019160ff8560a81c168152019301612d06565b92602060019160ff8560a01c168152019301612cfe565b92602060019160ff8560981c168152019301612cf6565b92602060019160ff8560901c168152019301612cee565b92602060019160ff8560881c168152019301612ce6565b92602060019160ff8560801c168152019301612cde565b92602060019160ff8560781c168152019301612cd6565b92602060019160ff8560701c168152019301612cce565b92602060019160ff8560681c168152019301612cc6565b92602060019160ff8560601c168152019301612cbe565b92602060019160ff8560581c168152019301612cb6565b92602060019160ff8560501c168152019301612cae565b92602060019160ff8560481c168152019301612ca6565b92602060019160ff8560401c168152019301612c9e565b92602060019160ff8560381c168152019301612c96565b92602060019160ff8560301c168152019301612c8e565b92602060019160ff8560281c168152019301612c86565b92602060019160ff85831c168152019301612c7e565b92602060019160ff8560181c168152019301612c76565b92602060019160ff8560101c168152019301612c6e565b92602060019160ff8560081c168152019301612c66565b92602060019160ff85168152019301612c5e565b916020919350610400600191865460ff8116825260ff8160081c168583015260ff8160101c16604083015260ff8160181c16606083015260ff81861c16608083015260ff8160281c1660a083015260ff8160301c1660c083015260ff8160381c1660e083015260ff8160401c1661010083015260ff8160481c1661012083015260ff8160501c1661014083015260ff8160581c1661016083015260ff8160601c1661018083015260ff8160681c166101a083015260ff8160701c166101c083015260ff8160781c166101e083015260ff8160801c1661020083015260ff8160881c1661022083015260ff8160901c1661024083015260ff8160981c1661026083015260ff8160a01c1661028083015260ff8160a81c166102a083015260ff8160b01c166102c083015260ff8160b81c166102e083015260ff8160c01c1661030083015260ff8160c81c1661032083015260ff8160d01c1661034083015260ff8160d81c1661036083015260ff8160e01c1661038083015260ff8160e81c166103a083015260ff8160f01c166103c083015260f81c6103e0820152019401920185929391612c46565b906040516131e6816129df565b8092805482526001810180546131fb81612a1e565b9161320960405193846129fb565b81835260208301905f5260205f205f915b8383106132545750505050600260809260ff92602086015201548181166040850152818160081c161515606085015260101c161515910152565b60046020600192604051613267816129c3565b61327560ff87541682612c1f565b613280858701612c2b565b83820152600286015460408201526003860154606082015281520192019201919061321a565b805115612b8e5760200190565b8051821015612b8e5760209160051b010190565b90610e108201809211611b5f57565b91908201809211611b5f57565b8054821015612b8e575f5260205f209060021b01905f90565b73ffffffffffffffffffffffffffffffffffffffff16801561345f575f52600360205260405f209081548015613445575f198101908111611b5f576133419083612b75565b5060028101549060ff8260101c169360ff808460081c1693169160028201546004830154955f935f9360015f91018054905b81831061341657505050888415158061340f575b985f935f9386151590816133ed575b5f946133a0575050565b600591929450015461012c8101809111611b5f574311906133c0836132c7565b4211816133e5575b826133dd575b50816133d8575091565b905091565b91505f6133ce565b8691506133c8565b94509450855f52600760205260405f20549460ff808760081c16961694613396565b5087613387565b9091959661343c61342f60019260026115e78b876132e3565b9860036115e78a866132e3565b96019190613373565b505f91508190819081908190819081908190819081908190565b6040516334460f4160e01b815260206004820152601660248201527f496e76616c696420706c617965722061646472657373000000000000000000006044820152606490fd5b60ff60019116019060ff8211611b5f57565b9060ff8091169116019060ff8211611b5f57565b60011b906101fe60fe831692168203611b5f57565b60ff60039116029060ff8216918203611b5f57565b906012811015612b8e5760051b0190565b60ff1660ff8114611b5f5760010190565b73ffffffffffffffffffffffffffffffffffffffff165f52600360205260405f2080548015613575575f198101908111611b5f57600261355960ff9284612b75565b50015460101c1615908161356b575090565b6002915001541590565b5050600190565b81810292918115918404141715611b5f57565b81811061359a575050565b5f815560010161358f565b80545f8255806135b3575050565b612d5c915f5260205f209081019061358f565b90680100000000000000008111612996578154908083558181106135e957505050565b612d5c925f5260205f20918201910161358f565b9190811015612b8e576060020190565b906139225781518155600181016020830151805190680100000000000000008211612996578254828455808310613866575b50602001915f5260205f20915f905b8282106136e957505050506002608091019160ff806040830151161660ff198454161783556136b36060820151151584907fffffffffffffffffffffffffffffffffffffffffffffffffffffffffffff00ff61ff00835492151560081b169116179055565b015181547fffffffffffffffffffffffffffffffffffffffffffffffffffffffffff00ffff1690151560101b62ff000016179055565b805180516009811015612aed5760ff60ff1987541691161785556001850160208201519081519167ffffffffffffffff83116129965768010000000000000000831161299657602090825484845580851061381d575b5001905f5260205f208260051c915f5b8381106137de5750601f1984168085039403613791575b5050505060206001926060836040600495015160028a0155015160038801550194019101909261364e565b5f935f905b8082106137ae57505050015560208260606004613766565b90919460206137d46001928560ff8a5116919060ff809160031b9316831b921b19161790565b9601920190613796565b5f5f5b602081106137f657508382015560010161374f565b835190939160019160209160ff600388901b81811b199092169216901b17920193016137e1565b61384790845f52835f20601f80880160051c8201928189168061384d575b500160051c019061358f565b5f61373f565b5f198501905f198254918a0360031b1c1690555f61383b565b7f3fffffffffffffffffffffffffffffffffffffffffffffffffffffffffffffff81168103611b5f577f3fffffffffffffffffffffffffffffffffffffffffffffffffffffffffffffff83168303611b5f57835f5260205f209060021b8101908360021b015b8181106138d9575061363f565b805f600492556001810180545f825580613902575b50505f60028201555f6003820155016138cc565b61391b915f52601f60205f20910160051c81019061358f565b5f806138ee565b7f4e487b71000000000000000000000000000000000000000000000000000000005f525f60045260245ffd5b929173ffffffffffffffffffffffffffffffffffffffff606094165f52600360205260405f2090815461398081612a1e565b9261398e60405194856129fb565b81845260208401905f5260205f205f915b838310613ae3575050505081519485841015613a8757506139c090836132d6565b90848211613a7f575b828203918211611b5f576139dc82612a1e565b926139ea60405194856129fb565b828452601f196139f984612a1e565b015f5b818110613a495750505f5b838110613a1657505050509190565b80613a2c613a26600193856132d6565b856132b3565b51613a3782886132b3565b52613a4281876132b3565b5001613a07565b602090604051613a58816129df565b5f81526060838201525f60408201525f60608201525f6080820152828289010152016139fc565b8491506139c9565b9250505060405190613a9a6020836129fb565b5f82525f90815b828110613aaf575050509190565b602090604051613abe816129df565b5f815283838201525f60408201525f848201525f608082015282828701015201613aa1565b60036020600192613af3856131d9565b81520192019201919061399f565b60ff1680613b4d5750604051613b186040826129fb565b600881527f53747261696768740000000000000000000000000000000000000000000000006020820152906001906205573090565b60018103613b975750604051613b646040826129fb565b601281527f466972737420446f7a656e2028312d31322900000000000000000000000000006020820152905f90614e2090565b60028103613be15750604051613bae6040826129fb565b601481527f5365636f6e6420446f7a656e202831332d3234290000000000000000000000006020820152905f90614e2090565b60038103613c2b5750604051613bf86040826129fb565b601381527f546869726420446f7a656e202832352d333629000000000000000000000000006020820152905f90614e2090565b60048103613c755750604051613c426040826129fb565b600c81527f466972737420436f6c756d6e00000000000000000000000000000000000000006020820152905f90614e2090565b60058103613cbf5750604051613c8c6040826129fb565b600d81527f5365636f6e6420436f6c756d6e000000000000000000000000000000000000006020820152905f90614e2090565b60068103613d095750604051613cd66040826129fb565b600c81527f546869726420436f6c756d6e00000000000000000000000000000000000000006020820152905f90614e2090565b60078103613d535750604051613d206040826129fb565b600381527f52656400000000000000000000000000000000000000000000000000000000006020820152905f9061271090565b60088103613d9d5750604051613d6a6040826129fb565b600581527f426c61636b0000000000000000000000000000000000000000000000000000006020820152905f9061271090565b60098103613de75750604051613db46040826129fb565b600481527f4576656e000000000000000000000000000000000000000000000000000000006020820152905f9061271090565b600a8103613e315750604051613dfe6040826129fb565b600381527f4f646400000000000000000000000000000000000000000000000000000000006020820152905f9061271090565b600b8103613e7b5750604051613e486040826129fb565b600a81527f4c6f772028312d313829000000000000000000000000000000000000000000006020820152905f9061271090565b600c14613ec8576040516334460f4160e01b815260206004820152601360248201527f496e76616c6964206265742074797065204944000000000000000000000000006044820152606490fd5b604051613ed66040826129fb565b600c81527f48696768202831392d33362900000000000000000000000000000000000000006020820152905f9061271090565b91825f52600760205260405f209081549060ff8260081c16156144295760ff82166143e457835160ff7f0000000000000000000000000000000000000000000000000000000000000000160361439f57845f52600860205273ffffffffffffffffffffffffffffffffffffffff60405f205416801561345f57805f52600360205260405f209260028401948786540361435a57600160ff198193161781550185519067ffffffffffffffff821161299657613fc482826135c6565b60208701905f5260205f205f5b83811061434657505050506003830192600160ff198554161784558054156143245780545f198101908111611b5f5761400991612b75565b5094600286019360ff855460101c16156142b1575061402b90959493956132a6565b51855460ff1916602590910660ff169081178655955f94600101939085805b86548810156141055761405d88886132e3565b509761407f8b8a60ff81541661407a600160028401549301612c2b565b6149d0565b8261408a82826132d6565b106140a757600361409d826001956132d6565b9a0155019661404a565b60646040517f08c379a000000000000000000000000000000000000000000000000000000000815260206004820152600f60248201527f5061796f7574206f766572666c6f7700000000000000000000000000000000006044820152fd5b939792965093975093506101007fffffffffffffffffffffffffffffffffffffffffffffffffffffffffff0000ff825416179055806141d6575b50906020917f8ab3a19ccf89d2ab7a1babe9f0dc4d37e5d5ab8a7d6850e70041fd7ff32589559360016004540160045582825260088452604082207fffffffffffffffffffffffff00000000000000000000000000000000000000008154169055828252600984526040822060ff198154169055828252600784526141cc600160408420848155016135a5565b55604051908152a2565b919073ffffffffffffffffffffffffffffffffffffffff6002541693843b15610c7a576040517f40c10f1900000000000000000000000000000000000000000000000000000000815273ffffffffffffffffffffffffffffffffffffffff8716600482015260248101859052945f908690604490829084905af1938415611abb577f8ab3a19ccf89d2ab7a1babe9f0dc4d37e5d5ab8a7d6850e70041fd7ff32589559560209561429a575b5061428e906005546132d6565b6005559350909161413f565b6142a79193505f906129fb565b5f9161428e614281565b95505050935f92915080835260076020526142d4600160408520858155016135a5565b8083526008602052604083207fffffffffffffffffffffffff00000000000000000000000000000000000000008154169055825260096020526040822060ff1981541690555560ff198154169055565b5050935f9291935080835260076020526142d4600160408520858155016135a5565b600190602084519401938184015501613fd1565b60646040516334460f4160e01b815260206004820152601360248201527f52657175657374204944206d69736d61746368000000000000000000000000006044820152fd5b60646040516334460f4160e01b815260206004820152601b60248201527f496e76616c69642072616e646f6d20776f726473206c656e67746800000000006044820152fd5b60646040516334460f4160e01b815260206004820152601960248201527f5265717565737420616c72656164792066756c66696c6c6564000000000000006044820152fd5b60646040516334460f4160e01b815260206004820152601160248201527f52657175657374206e6f7420666f756e640000000000000000000000000000006044820152fd5b73ffffffffffffffffffffffffffffffffffffffff60015460081c16330361449257565b7f118cdaa7000000000000000000000000000000000000000000000000000000005f523360045260245ffd5b60025f54146144cd5760025f55565b7f3ee5aeb5000000000000000000000000000000000000000000000000000000005f5260045ffd5b60ff6001541661450157565b7fd93c0665000000000000000000000000000000000000000000000000000000005f5260045ffd5b3560ff81168103610c7a5790565b60ff61454282614529565b166145f25760200190602460ff61455884614529565b161161459457614580604051926145706040856129fb565b6001845260203681860137614529565b60ff61458b846132a6565b911690525f9190565b60646040517f08c379a000000000000000000000000000000000000000000000000000000000815260206004820152601f60248201527f496e76616c6964206e756d62657220666f7220737472616967687420626574006044820152fd5b600160ff6145ff83614529565b1603614662575060405190601f196101a061461a81856129fb565b600c8452013660208401375f5b60ff8116600c81101561465a578160019160ff61464f6146488296866134b7565b92886132b3565b911690520116614627565b505060019190565b600260ff61466f83614529565b16036146c4575060405190601f196101a061468a81856129fb565b600c8452013660208401375f5b60ff8116600c81101561465a578160019160ff6146b96146488296600d6134b7565b911690520116614697565b600360ff6146d183614529565b1603614726575060405190601f196101a06146ec81856129fb565b600c8452013660208401375f5b60ff8116600c81101561465a578160019160ff61471b614648829660196134b7565b9116905201166146f9565b600460ff61473383614529565b1603614797575060405190601f196101a061474e81856129fb565b600c8452013660208401375f5b60ff8116600c81101561478f578160019160ff61478461464861477e83976134e0565b866134b7565b91169052011661475b565b505060029190565b600560ff6147a483614529565b1603614801575060405190601f196101a06147bf81856129fb565b600c8452013660208401375f5b60ff8116600c81101561478f578160019160ff6147f66146486147ef83976134e0565b60026134b7565b9116905201166147cc565b600660ff61480e83614529565b160361486b575060405190601f196101a061482981856129fb565b600c8452013660208401375f5b60ff8116600c81101561478f578160019160ff61486061464861485983976134e0565b60036134b7565b911690520116614836565b600760ff61487883614529565b160361489b57506040519061488e6020836129fb565b5f82525f36813760039190565b600860ff6148a883614529565b16036148cb5750604051906148be6020836129fb565b5f82525f36813760049190565b600960ff6148d883614529565b16036148fb5750604051906148ee6020836129fb565b5f82525f36813760059190565b600a60ff61490883614529565b160361492b57506040519061491e6020836129fb565b5f82525f36813760069190565b600b60ff61493883614529565b160361495b57506040519061494e6020836129fb565b5f82525f36813760079190565b60ff614968600c92614529565b16146149b4576040516334460f4160e01b815260206004820152601360248201527f496e76616c6964206265742074797065204944000000000000000000000000006044820152606490fd5b604051906149c36020836129fb565b5f82525f36813760089190565b9091928315614c125769152d02c7e14af68000008411614bcd57826149f492614ca1565b6149fe5750505f90565b614a0790614c1a565b908115614b6f57614a18828261357c565b9181830403614b2a5761271082049161271083028381046127101484151715611b5f5703614ae557614a4a90826132d6565b908110614aa0576a0e79c4e6a3023e818000008111614a665790565b7f21e510be000000000000000000000000000000000000000000000000000000005f526004526a0e79c4e6a3023e8180000060245260445ffd5b60646040516334460f4160e01b815260206004820152601560248201527f546f74616c207061796f7574206f766572666c6f7700000000000000000000006044820152fd5b60646040516334460f4160e01b815260206004820152601860248201527f5061796f7574206469766973696f6e206d69736d6174636800000000000000006044820152fd5b60646040516334460f4160e01b815260206004820152601b60248201527f5061796f75742063616c63756c6174696f6e206f766572666c6f7700000000006044820152fd5b60646040517f08c379a000000000000000000000000000000000000000000000000000000000815260206004820152601260248201527f496e76616c6964206d756c7469706c69657200000000000000000000000000006044820152fd5b60646040516334460f4160e01b815260206004820152601a60248201527f42657420616d6f756e742065786365656473206d6178696d756d0000000000006044820152fd5b505050505f90565b906009821015612aed578115614c995760018214614c925760028214614c92575f90600383101580614c84575b614c7b5750612aed577f6a359247000000000000000000000000000000000000000000000000000000005f5260045260245ffd5b91505061271090565b505f91506008831115614c47565b614e209150565b620557309150565b919060ff82169160248311614c12578215614d9b576009821015612aed5760038214614d8b5760048214614d755760058214614d645760068214614d57575060078114614d3d57600814614d29575f5b825160ff821690811015614c125760ff614d0c8492866132b3565b511614614d2157614d1c90613506565b614cf1565b505050600190565b60139150101580614d375790565b50600190565b506001811015915081614d4e575090565b60129150111590565b6001908116149392505050565b91505060019150161580614d375790565b915050614d829150614dd7565b1580614d375790565b915050614d989150614dd7565b90565b5090506009811015612aed57159081614dcb575b81614db8575090565b60ff9150614dc5906132a6565b51161590565b80516001149150614daf565b60ff168015614ea35760405190614ded82612979565b6001825260036020830152600560408301526007606083015260096080830152600c60a0830152600e60c0830152601060e083015260126101008301526013610120830152601561014083015260176101608301526019610180830152601b6101a0830152601e6101c083015260206101e0830152602261020083015260246102208301525f5b60ff81166012811015614c125760ff614e8e8492866134f5565b511614614d2157614e9e90613506565b614e74565b505f9056fea2646970667358221220960a42b24a16840140b1101391cdcaba2512e357a9e30159d1dde8b1bd954e6e64736f6c634300081c0033",
    "linkReferences": {}
  },
  "methodIdentifiers": {
    "BLACK_BET()": "19469f1b",
    "COLUMN_BET_FIRST()": "b8a5e438",
    "COLUMN_BET_SECOND()": "2257b057",
    "COLUMN_BET_THIRD()": "ddebc952",
    "DENOMINATOR()": "918f8674",
    "DOZEN_BET_FIRST()": "36b39a60",
    "DOZEN_BET_SECOND()": "b34daef4",
    "DOZEN_BET_THIRD()": "d6b6cd59",
    "EVEN_BET()": "e60271cf",
    "HIGH_BET()": "7d3d31ad",
    "LOW_BET()": "94b9b507",
    "MAX_BET_AMOUNT()": "309167f5",
    "MAX_HISTORY_SIZE()": "c1066251",
    "MAX_NUMBER()": "fea9b572",
    "MAX_POSSIBLE_PAYOUT()": "4689b441",
    "MAX_TOTAL_BET_AMOUNT()": "2d2cd034",
    "ODD_BET()": "94bae385",
    "RED_BET()": "a3982227",
    "RESULT_FORCE_STOPPED()": "38f8bc6d",
    "RESULT_RECOVERED()": "57816f3e",
    "STRAIGHT_BET()": "432aeb8f",
    "canStartNewGame(address)": "5d424b85",
    "forceStopGame(address)": "b52a0855",
    "gamaToken()": "d56ec8c9",
    "getAllBetTypes()": "79023170",
    "getBetDetails(address,uint256)": "2ff21494",
    "getBetTypeInfo(uint8)": "fa198c4f",
    "getGameStatus(address)": "54e4437e",
    "getPlayerForRequest(uint256)": "04243151",
    "getPossibleWinningNumbers(uint8)": "5a0db4d2",
    "getUserBetHistory(address,uint256,uint256)": "e3286e55",
    "hasPendingRequest(address)": "0c99375d",
    "owner()": "8da5cb5b",
    "pause()": "8456cb59",
    "paused()": "5c975abb",
    "placeBet((uint8,uint8,uint256)[])": "c1a5fe51",
    "rawFulfillRandomWords(uint256,uint256[])": "1fe543e3",
    "recoverOwnStuckGame()": "a20ff9fc",
    "renounceOwnership()": "715018a6",
    "s_requests(uint256)": "a168fa89",
    "totalGamesPlayed()": "5c492129",
    "totalPayoutAmount()": "e7efcfc2",
    "totalWageredAmount()": "5bdb2e1b",
    "transferOwnership(address)": "f2fde38b",
    "unpause()": "3f4ba83a",
    "userData(address)": "c8910913"
  },
  "id": 39
}